{
  "_format": "hh-sol-artifact-1",
  "contractName": "ZombieHelper",
  "sourceName": "contracts/ZombieHelper.sol",
  "abi": [
    {
      "anonymous": false,
      "inputs": [
        {
          "indexed": false,
          "internalType": "uint256",
          "name": "zombieId",
          "type": "uint256"
        },
        {
          "indexed": false,
          "internalType": "string",
          "name": "name",
          "type": "string"
        },
        {
          "indexed": false,
          "internalType": "uint256",
          "name": "dna",
          "type": "uint256"
        }
      ],
      "name": "NewZombie",
      "type": "event"
    },
    {
      "anonymous": false,
      "inputs": [
        {
          "indexed": true,
          "internalType": "address",
          "name": "previousOwner",
          "type": "address"
        },
        {
          "indexed": true,
          "internalType": "address",
          "name": "newOwner",
          "type": "address"
        }
      ],
      "name": "OwnershipTransferred",
      "type": "event"
    },
    {
      "inputs": [
        {
          "internalType": "uint256",
          "name": "_zombieId",
          "type": "uint256"
        },
        {
          "internalType": "uint256",
          "name": "_newDna",
          "type": "uint256"
        }
      ],
      "name": "changeDna",
      "outputs": [],
      "stateMutability": "nonpayable",
      "type": "function"
    },
    {
      "inputs": [
        {
          "internalType": "uint256",
          "name": "_zombieId",
          "type": "uint256"
        },
        {
          "internalType": "string",
          "name": "_newName",
          "type": "string"
        }
      ],
      "name": "changeName",
      "outputs": [],
      "stateMutability": "nonpayable",
      "type": "function"
    },
    {
      "inputs": [
        {
          "internalType": "string",
          "name": "_name",
          "type": "string"
        }
      ],
      "name": "createRandomZombie",
      "outputs": [],
      "stateMutability": "nonpayable",
      "type": "function"
    },
    {
      "inputs": [
        {
          "internalType": "uint256",
          "name": "_zombieId",
          "type": "uint256"
        },
        {
          "internalType": "uint256",
          "name": "_kittyId",
          "type": "uint256"
        }
      ],
      "name": "feedOnKitty",
      "outputs": [],
      "stateMutability": "nonpayable",
      "type": "function"
    },
    {
      "inputs": [
        {
          "internalType": "address",
          "name": "_owner",
          "type": "address"
        }
      ],
      "name": "getZombiesByOwner",
      "outputs": [
        {
          "internalType": "uint256[]",
          "name": "",
          "type": "uint256[]"
        }
      ],
      "stateMutability": "view",
      "type": "function"
    },
    {
      "inputs": [
        {
          "internalType": "uint256",
          "name": "_zombieId",
          "type": "uint256"
        }
      ],
      "name": "levelUp",
      "outputs": [],
      "stateMutability": "payable",
      "type": "function"
    },
    {
      "inputs": [],
      "name": "owner",
      "outputs": [
        {
          "internalType": "address",
          "name": "",
          "type": "address"
        }
      ],
      "stateMutability": "view",
      "type": "function"
    },
    {
      "inputs": [],
      "name": "renounceOwnership",
      "outputs": [],
      "stateMutability": "nonpayable",
      "type": "function"
    },
    {
      "inputs": [
        {
          "internalType": "address",
          "name": "_address",
          "type": "address"
        }
      ],
      "name": "setKittyContractAddress",
      "outputs": [],
      "stateMutability": "nonpayable",
      "type": "function"
    },
    {
      "inputs": [
        {
          "internalType": "uint256",
          "name": "_fee",
          "type": "uint256"
        }
      ],
      "name": "setLevelUpFee",
      "outputs": [],
      "stateMutability": "nonpayable",
      "type": "function"
    },
    {
      "inputs": [
        {
          "internalType": "address",
          "name": "newOwner",
          "type": "address"
        }
      ],
      "name": "transferOwnership",
      "outputs": [],
      "stateMutability": "nonpayable",
      "type": "function"
    },
    {
      "inputs": [],
      "name": "withdraw",
      "outputs": [],
      "stateMutability": "nonpayable",
      "type": "function"
    },
    {
      "inputs": [
        {
          "internalType": "uint256",
          "name": "",
          "type": "uint256"
        }
      ],
      "name": "zombieToOwner",
      "outputs": [
        {
          "internalType": "address",
          "name": "",
          "type": "address"
        }
      ],
      "stateMutability": "view",
      "type": "function"
    },
    {
      "inputs": [
        {
          "internalType": "uint256",
          "name": "",
          "type": "uint256"
        }
      ],
      "name": "zombies",
      "outputs": [
        {
          "internalType": "string",
          "name": "name",
          "type": "string"
        },
        {
          "internalType": "uint256",
          "name": "dna",
          "type": "uint256"
        },
        {
          "internalType": "uint32",
          "name": "level",
          "type": "uint32"
        },
        {
          "internalType": "uint32",
          "name": "readyTime",
          "type": "uint32"
        },
        {
          "internalType": "uint16",
          "name": "winCount",
          "type": "uint16"
        },
        {
          "internalType": "uint16",
          "name": "lossCount",
          "type": "uint16"
        }
      ],
      "stateMutability": "view",
      "type": "function"
    }
  ],
  "bytecode": "0x60806040526010600155600154600a610018919061024c565b6002556201518060035566038d7ea4c6800060085534801561003957600080fd5b506000339050806000806101000a81548173ffffffffffffffffffffffffffffffffffffffff021916908373ffffffffffffffffffffffffffffffffffffffff1602179055508073ffffffffffffffffffffffffffffffffffffffff16600073ffffffffffffffffffffffffffffffffffffffff167f8be0079c531659141344cd1fd0a4f28419497f9722a3daafe3b4186f6b6457e060405160405180910390a350610297565b7f4e487b7100000000000000000000000000000000000000000000000000000000600052601160045260246000fd5b60008160011c9050919050565b6000808291508390505b600185111561016657808604811115610142576101416100e0565b5b60018516156101515780820291505b808102905061015f8561010f565b9450610126565b94509492505050565b60008261017f576001905061023b565b8161018d576000905061023b565b81600181146101a357600281146101ad576101dc565b600191505061023b565b60ff8411156101bf576101be6100e0565b5b8360020a9150848211156101d6576101d56100e0565b5b5061023b565b5060208310610133831016604e8410600b84101617156102115782820a90508381111561020c5761020b6100e0565b5b61023b565b61021e848484600161011c565b92509050818404811115610235576102346100e0565b5b81810290505b9392505050565b6000819050919050565b600061025782610242565b915061026283610242565b925061028f7fffffffffffffffffffffffffffffffffffffffffffffffffffffffffffffffff848461016f565b905092915050565b612364806102a66000396000f3fe6080604052600436106100dd5760003560e01c80635faf28801161007f5780638da5cb5b116100595780638da5cb5b1461028c578063c39cbef1146102b7578063ccf670f8146102e0578063f2fde38b14610309576100dd565b80635faf288014610223578063715018a61461024c5780637bff0a0114610263576100dd565b80633ccfd60b116100bb5780633ccfd60b146101695780634412e10414610180578063528b7b8f146101bd5780635f4623f1146101fa576100dd565b80630ce90ec2146100e257806317a7f4cc146100fe5780632052465e14610127575b600080fd5b6100fc60048036038101906100f791906114b5565b610332565b005b34801561010a57600080fd5b50610125600480360381019061012091906114e2565b6103d5565b005b34801561013357600080fd5b5061014e600480360381019061014991906114b5565b6104f3565b604051610160969594939291906115fd565b60405180910390f35b34801561017557600080fd5b5061017e610603565b005b34801561018c57600080fd5b506101a760048036038101906101a291906116c3565b6106e7565b6040516101b491906117ae565b60405180910390f35b3480156101c957600080fd5b506101e460048036038101906101df91906114b5565b610833565b6040516101f191906117df565b60405180910390f35b34801561020657600080fd5b50610221600480360381019061021c91906116c3565b610866565b005b34801561022f57600080fd5b5061024a600480360381019061024591906114e2565b610938565b005b34801561025857600080fd5b50610261610a20565b005b34801561026f57600080fd5b5061028a6004803603810190610285919061192f565b610b6c565b005b34801561029857600080fd5b506102a1610bed565b6040516102ae91906117df565b60405180910390f35b3480156102c357600080fd5b506102de60048036038101906102d991906119d8565b610c16565b005b3480156102ec57600080fd5b50610307600480360381019061030291906114b5565b610d0a565b005b34801561031557600080fd5b50610330600480360381019061032b91906116c3565b610da2565b005b600854341461034057600080fd5b61038f60016004838154811061035957610358611a38565b5b906000526020600020906003020160020160009054906101000a900463ffffffff1663ffffffff16610f5c90919063ffffffff16565b600482815481106103a3576103a2611a38565b5b906000526020600020906003020160020160006101000a81548163ffffffff021916908363ffffffff16021790555050565b6000600760009054906101000a900473ffffffffffffffffffffffffffffffffffffffff1673ffffffffffffffffffffffffffffffffffffffff1663e98b7f4d836040518263ffffffff1660e01b81526004016104329190611a67565b61014060405180830381865afa158015610450573d6000803e3d6000fd5b505050506040513d601f19601f820116820180604052508101906104749190611acf565b909192939495969798509091929394959697509091929394959650909192939495509091929394509091929350909192509091509050809150506104ee83826040518060400160405280600581526020017f6b69747479000000000000000000000000000000000000000000000000000000815250610f94565b505050565b6004818154811061050357600080fd5b906000526020600020906003020160009150905080600001805461052690611bdd565b80601f016020809104026020016040519081016040528092919081815260200182805461055290611bdd565b801561059f5780601f106105745761010080835404028352916020019161059f565b820191906000526020600020905b81548152906001019060200180831161058257829003601f168201915b5050505050908060010154908060020160009054906101000a900463ffffffff16908060020160049054906101000a900463ffffffff16908060020160089054906101000a900461ffff169080600201600a9054906101000a900461ffff16905086565b3373ffffffffffffffffffffffffffffffffffffffff1660008054906101000a900473ffffffffffffffffffffffffffffffffffffffff1673ffffffffffffffffffffffffffffffffffffffff1614610691576040517f08c379a000000000000000000000000000000000000000000000000000000000815260040161068890611c5a565b60405180910390fd5b600061069b610bed565b90508073ffffffffffffffffffffffffffffffffffffffff166108fc479081150290604051600060405180830381858888f193505050501580156106e3573d6000803e3d6000fd5b5050565b60606000600660008473ffffffffffffffffffffffffffffffffffffffff1673ffffffffffffffffffffffffffffffffffffffff1681526020019081526020016000205467ffffffffffffffff81111561074457610743611804565b5b6040519080825280602002602001820160405280156107725781602001602082028036833780820191505090505b5090506000805b600480549050811015610828578473ffffffffffffffffffffffffffffffffffffffff166005600083815260200190815260200160002060009054906101000a900473ffffffffffffffffffffffffffffffffffffffff1673ffffffffffffffffffffffffffffffffffffffff160361081b5780838381518110610800576107ff611a38565b5b602002602001018181525050818061081790611ca9565b9250505b8080600101915050610779565b508192505050919050565b60056020528060005260406000206000915054906101000a900473ffffffffffffffffffffffffffffffffffffffff1681565b3373ffffffffffffffffffffffffffffffffffffffff1660008054906101000a900473ffffffffffffffffffffffffffffffffffffffff1673ffffffffffffffffffffffffffffffffffffffff16146108f4576040517f08c379a00000000000000000000000000000000000000000000000000000000081526004016108eb90611c5a565b60405180910390fd5b80600760006101000a81548173ffffffffffffffffffffffffffffffffffffffff021916908373ffffffffffffffffffffffffffffffffffffffff16021790555050565b60148281600482815481106109505761094f611a38565b5b906000526020600020906003020160020160009054906101000a900463ffffffff1663ffffffff16101561098357600080fd5b836005600082815260200190815260200160002060009054906101000a900473ffffffffffffffffffffffffffffffffffffffff1673ffffffffffffffffffffffffffffffffffffffff163373ffffffffffffffffffffffffffffffffffffffff16146109ef57600080fd5b8360048681548110610a0457610a03611a38565b5b9060005260206000209060030201600101819055505050505050565b3373ffffffffffffffffffffffffffffffffffffffff1660008054906101000a900473ffffffffffffffffffffffffffffffffffffffff1673ffffffffffffffffffffffffffffffffffffffff1614610aae576040517f08c379a0000000000000000000000000000000000000000000000000000000008152600401610aa590611c5a565b60405180910390fd5b600073ffffffffffffffffffffffffffffffffffffffff1660008054906101000a900473ffffffffffffffffffffffffffffffffffffffff1673ffffffffffffffffffffffffffffffffffffffff167f8be0079c531659141344cd1fd0a4f28419497f9722a3daafe3b4186f6b6457e060405160405180910390a360008060006101000a81548173ffffffffffffffffffffffffffffffffffffffff021916908373ffffffffffffffffffffffffffffffffffffffff160217905550565b6000600660003373ffffffffffffffffffffffffffffffffffffffff1673ffffffffffffffffffffffffffffffffffffffff1681526020019081526020016000205414610bb857600080fd5b6000610bc382611130565b9050606481610bd29190611d20565b81610bdd9190611d51565b9050610be98282611175565b5050565b60008060009054906101000a900473ffffffffffffffffffffffffffffffffffffffff16905090565b6002838160048281548110610c2e57610c2d611a38565b5b906000526020600020906003020160020160009054906101000a900463ffffffff1663ffffffff161015610c6157600080fd5b846005600082815260200190815260200160002060009054906101000a900473ffffffffffffffffffffffffffffffffffffffff1673ffffffffffffffffffffffffffffffffffffffff163373ffffffffffffffffffffffffffffffffffffffff1614610ccd57600080fd5b848460048881548110610ce357610ce2611a38565b5b90600052602060002090600302016000019182610d01929190611f3c565b50505050505050565b3373ffffffffffffffffffffffffffffffffffffffff1660008054906101000a900473ffffffffffffffffffffffffffffffffffffffff1673ffffffffffffffffffffffffffffffffffffffff1614610d98576040517f08c379a0000000000000000000000000000000000000000000000000000000008152600401610d8f90611c5a565b60405180910390fd5b8060088190555050565b3373ffffffffffffffffffffffffffffffffffffffff1660008054906101000a900473ffffffffffffffffffffffffffffffffffffffff1673ffffffffffffffffffffffffffffffffffffffff1614610e30576040517f08c379a0000000000000000000000000000000000000000000000000000000008152600401610e2790611c5a565b60405180910390fd5b600073ffffffffffffffffffffffffffffffffffffffff168173ffffffffffffffffffffffffffffffffffffffff1603610e9f576040517f08c379a0000000000000000000000000000000000000000000000000000000008152600401610e969061207e565b60405180910390fd5b8073ffffffffffffffffffffffffffffffffffffffff1660008054906101000a900473ffffffffffffffffffffffffffffffffffffffff1673ffffffffffffffffffffffffffffffffffffffff167f8be0079c531659141344cd1fd0a4f28419497f9722a3daafe3b4186f6b6457e060405160405180910390a3806000806101000a81548173ffffffffffffffffffffffffffffffffffffffff021916908373ffffffffffffffffffffffffffffffffffffffff16021790555050565b6000808284610f6b919061209e565b90508363ffffffff168163ffffffff161015610f8a57610f896120d6565b5b8091505092915050565b826005600082815260200190815260200160002060009054906101000a900473ffffffffffffffffffffffffffffffffffffffff1673ffffffffffffffffffffffffffffffffffffffff163373ffffffffffffffffffffffffffffffffffffffff161461100057600080fd5b60006004858154811061101657611015611a38565b5b9060005260206000209060030201905061102f816113e5565b61103857600080fd5b600254846110469190611d20565b93506000600285836001015461105c9190612105565b6110669190612139565b9050604051602001611077906121c1565b604051602081830303815290604052805190602001208460405160200161109e9190612207565b60405160208183030381529060405280519060200120036110e05760636064826110c89190611d20565b826110d39190611d51565b6110dd9190612105565b90505b61111f6040518060400160405280600681526020017f4e6f4e616d65000000000000000000000000000000000000000000000000000081525082611175565b6111288261140c565b505050505050565b600080826040516020016111449190612207565b6040516020818303038152906040528051906020012060001c90506002548161116d9190611d20565b915050919050565b60046040518060c00160405280848152602001838152602001600163ffffffff168152602001600354426111a99190612105565b63ffffffff168152602001600061ffff168152602001600061ffff1681525090806001815401808255809150506001900390600052602060002090600302016000909190919091506000820151816000019081611206919061221e565b506020820151816001015560408201518160020160006101000a81548163ffffffff021916908363ffffffff16021790555060608201518160020160046101000a81548163ffffffff021916908363ffffffff16021790555060808201518160020160086101000a81548161ffff021916908361ffff16021790555060a082015181600201600a6101000a81548161ffff021916908361ffff1602179055505050600060016004805490506112bb9190611d51565b9050336005600083815260200190815260200160002060006101000a81548173ffffffffffffffffffffffffffffffffffffffff021916908373ffffffffffffffffffffffffffffffffffffffff1602179055506113626001600660003373ffffffffffffffffffffffffffffffffffffffff1673ffffffffffffffffffffffffffffffffffffffff1681526020019081526020016000205461143f90919063ffffffff16565b600660003373ffffffffffffffffffffffffffffffffffffffff1673ffffffffffffffffffffffffffffffffffffffff168152602001908152602001600020819055507f88f026aacbbecc90c18411df4b1185fd8d9be2470f1962f192bf84a27d0704b78184846040516113d8939291906122f0565b60405180910390a1505050565b6000428260020160049054906101000a900463ffffffff1663ffffffff1611159050919050565b6003544261141a9190612105565b8160020160046101000a81548163ffffffff021916908363ffffffff16021790555050565b600080828461144e9190612105565b905083811015611461576114606120d6565b5b8091505092915050565b6000604051905090565b600080fd5b600080fd5b6000819050919050565b6114928161147f565b811461149d57600080fd5b50565b6000813590506114af81611489565b92915050565b6000602082840312156114cb576114ca611475565b5b60006114d9848285016114a0565b91505092915050565b600080604083850312156114f9576114f8611475565b5b6000611507858286016114a0565b9250506020611518858286016114a0565b9150509250929050565b600081519050919050565b600082825260208201905092915050565b60005b8381101561155c578082015181840152602081019050611541565b60008484015250505050565b6000601f19601f8301169050919050565b600061158482611522565b61158e818561152d565b935061159e81856020860161153e565b6115a781611568565b840191505092915050565b6115bb8161147f565b82525050565b600063ffffffff82169050919050565b6115da816115c1565b82525050565b600061ffff82169050919050565b6115f7816115e0565b82525050565b600060c08201905081810360008301526116178189611579565b905061162660208301886115b2565b61163360408301876115d1565b61164060608301866115d1565b61164d60808301856115ee565b61165a60a08301846115ee565b979650505050505050565b600073ffffffffffffffffffffffffffffffffffffffff82169050919050565b600061169082611665565b9050919050565b6116a081611685565b81146116ab57600080fd5b50565b6000813590506116bd81611697565b92915050565b6000602082840312156116d9576116d8611475565b5b60006116e7848285016116ae565b91505092915050565b600081519050919050565b600082825260208201905092915050565b6000819050602082019050919050565b6117258161147f565b82525050565b6000611737838361171c565b60208301905092915050565b6000602082019050919050565b600061175b826116f0565b61176581856116fb565b93506117708361170c565b8060005b838110156117a1578151611788888261172b565b975061179383611743565b925050600181019050611774565b5085935050505092915050565b600060208201905081810360008301526117c88184611750565b905092915050565b6117d981611685565b82525050565b60006020820190506117f460008301846117d0565b92915050565b600080fd5b600080fd5b7f4e487b7100000000000000000000000000000000000000000000000000000000600052604160045260246000fd5b61183c82611568565b810181811067ffffffffffffffff8211171561185b5761185a611804565b5b80604052505050565b600061186e61146b565b905061187a8282611833565b919050565b600067ffffffffffffffff82111561189a57611899611804565b5b6118a382611568565b9050602081019050919050565b82818337600083830152505050565b60006118d26118cd8461187f565b611864565b9050828152602081018484840111156118ee576118ed6117ff565b5b6118f98482856118b0565b509392505050565b600082601f830112611916576119156117fa565b5b81356119268482602086016118bf565b91505092915050565b60006020828403121561194557611944611475565b5b600082013567ffffffffffffffff8111156119635761196261147a565b5b61196f84828501611901565b91505092915050565b600080fd5b600080fd5b60008083601f840112611998576119976117fa565b5b8235905067ffffffffffffffff8111156119b5576119b4611978565b5b6020830191508360018202830111156119d1576119d061197d565b5b9250929050565b6000806000604084860312156119f1576119f0611475565b5b60006119ff868287016114a0565b935050602084013567ffffffffffffffff811115611a2057611a1f61147a565b5b611a2c86828701611982565b92509250509250925092565b7f4e487b7100000000000000000000000000000000000000000000000000000000600052603260045260246000fd5b6000602082019050611a7c60008301846115b2565b92915050565b60008115159050919050565b611a9781611a82565b8114611aa257600080fd5b50565b600081519050611ab481611a8e565b92915050565b600081519050611ac981611489565b92915050565b6000806000806000806000806000806101408b8d031215611af357611af2611475565b5b6000611b018d828e01611aa5565b9a50506020611b128d828e01611aa5565b9950506040611b238d828e01611aba565b9850506060611b348d828e01611aba565b9750506080611b458d828e01611aba565b96505060a0611b568d828e01611aba565b95505060c0611b678d828e01611aba565b94505060e0611b788d828e01611aba565b935050610100611b8a8d828e01611aba565b925050610120611b9c8d828e01611aba565b9150509295989b9194979a5092959850565b7f4e487b7100000000000000000000000000000000000000000000000000000000600052602260045260246000fd5b60006002820490506001821680611bf557607f821691505b602082108103611c0857611c07611bae565b5b50919050565b7f4f776e61626c653a2063616c6c6572206973206e6f7420746865206f776e6572600082015250565b6000611c4460208361152d565b9150611c4f82611c0e565b602082019050919050565b60006020820190508181036000830152611c7381611c37565b9050919050565b7f4e487b7100000000000000000000000000000000000000000000000000000000600052601160045260246000fd5b6000611cb48261147f565b91507fffffffffffffffffffffffffffffffffffffffffffffffffffffffffffffffff8203611ce657611ce5611c7a565b5b600182019050919050565b7f4e487b7100000000000000000000000000000000000000000000000000000000600052601260045260246000fd5b6000611d2b8261147f565b9150611d368361147f565b925082611d4657611d45611cf1565b5b828206905092915050565b6000611d5c8261147f565b9150611d678361147f565b9250828203905081811115611d7f57611d7e611c7a565b5b92915050565b600082905092915050565b60008190508160005260206000209050919050565b60006020601f8301049050919050565b600082821b905092915050565b600060088302611df27fffffffffffffffffffffffffffffffffffffffffffffffffffffffffffffffff82611db5565b611dfc8683611db5565b95508019841693508086168417925050509392505050565b6000819050919050565b6000611e39611e34611e2f8461147f565b611e14565b61147f565b9050919050565b6000819050919050565b611e5383611e1e565b611e67611e5f82611e40565b848454611dc2565b825550505050565b600090565b611e7c611e6f565b611e87818484611e4a565b505050565b5b81811015611eab57611ea0600082611e74565b600181019050611e8d565b5050565b601f821115611ef057611ec181611d90565b611eca84611da5565b81016020851015611ed9578190505b611eed611ee585611da5565b830182611e8c565b50505b505050565b600082821c905092915050565b6000611f1360001984600802611ef5565b1980831691505092915050565b6000611f2c8383611f02565b9150826002028217905092915050565b611f468383611d85565b67ffffffffffffffff811115611f5f57611f5e611804565b5b611f698254611bdd565b611f74828285611eaf565b6000601f831160018114611fa35760008415611f91578287013590505b611f9b8582611f20565b865550612003565b601f198416611fb186611d90565b60005b82811015611fd957848901358255600182019150602085019450602081019050611fb4565b86831015611ff65784890135611ff2601f891682611f02565b8355505b6001600288020188555050505b50505050505050565b7f4f776e61626c653a206e6577206f776e657220697320746865207a65726f206160008201527f6464726573730000000000000000000000000000000000000000000000000000602082015250565b600061206860268361152d565b91506120738261200c565b604082019050919050565b600060208201905081810360008301526120978161205b565b9050919050565b60006120a9826115c1565b91506120b4836115c1565b9250828201905063ffffffff8111156120d0576120cf611c7a565b5b92915050565b7f4e487b7100000000000000000000000000000000000000000000000000000000600052600160045260246000fd5b60006121108261147f565b915061211b8361147f565b925082820190508082111561213357612132611c7a565b5b92915050565b60006121448261147f565b915061214f8361147f565b92508261215f5761215e611cf1565b5b828204905092915050565b600081905092915050565b7f6b69747479000000000000000000000000000000000000000000000000000000600082015250565b60006121ab60058361216a565b91506121b682612175565b600582019050919050565b60006121cc8261219e565b9150819050919050565b60006121e182611522565b6121eb818561216a565b93506121fb81856020860161153e565b80840191505092915050565b600061221382846121d6565b915081905092915050565b61222782611522565b67ffffffffffffffff8111156122405761223f611804565b5b61224a8254611bdd565b612255828285611eaf565b600060209050601f8311600181146122885760008415612276578287015190505b6122808582611f20565b8655506122e8565b601f19841661229686611d90565b60005b828110156122be57848901518255600182019150602085019450602081019050612299565b868310156122db57848901516122d7601f891682611f02565b8355505b6001600288020188555050505b505050505050565b600060608201905061230560008301866115b2565b81810360208301526123178185611579565b905061232660408301846115b2565b94935050505056fea264697066735822122054c3596622b1d63a259c76d37047172f0ab8c76e2a8857a7cc868e1f574186d564736f6c634300081c0033",
  "linkReferences": {},
  "deployedLinkReferences": {}
}