{
  "_format": "hh-sol-artifact-1",
  "contractName": "ZombieOwnership",
  "sourceName": "contracts/ZombieOwnership.sol",
  "abi": [
    {
      "anonymous": false,
      "inputs": [
        {
          "indexed": true,
          "internalType": "address",
          "name": "_owner",
          "type": "address"
        },
        {
          "indexed": true,
          "internalType": "address",
          "name": "_approved",
          "type": "address"
        },
        {
          "indexed": true,
          "internalType": "uint256",
          "name": "_tokenId",
          "type": "uint256"
        }
      ],
      "name": "Approval",
      "type": "event"
    },
    {
      "anonymous": false,
      "inputs": [
        {
          "indexed": false,
          "internalType": "uint256",
          "name": "zombieId",
          "type": "uint256"
        },
        {
          "indexed": false,
          "internalType": "string",
          "name": "name",
          "type": "string"
        },
        {
          "indexed": false,
          "internalType": "uint256",
          "name": "dna",
          "type": "uint256"
        }
      ],
      "name": "NewZombie",
      "type": "event"
    },
    {
      "anonymous": false,
      "inputs": [
        {
          "indexed": true,
          "internalType": "address",
          "name": "previousOwner",
          "type": "address"
        },
        {
          "indexed": true,
          "internalType": "address",
          "name": "newOwner",
          "type": "address"
        }
      ],
      "name": "OwnershipTransferred",
      "type": "event"
    },
    {
      "anonymous": false,
      "inputs": [
        {
          "indexed": true,
          "internalType": "address",
          "name": "_from",
          "type": "address"
        },
        {
          "indexed": true,
          "internalType": "address",
          "name": "_to",
          "type": "address"
        },
        {
          "indexed": true,
          "internalType": "uint256",
          "name": "_tokenId",
          "type": "uint256"
        }
      ],
      "name": "Transfer",
      "type": "event"
    },
    {
      "inputs": [
        {
          "internalType": "address",
          "name": "_approved",
          "type": "address"
        },
        {
          "internalType": "uint256",
          "name": "_tokenId",
          "type": "uint256"
        }
      ],
      "name": "approve",
      "outputs": [],
      "stateMutability": "payable",
      "type": "function"
    },
    {
      "inputs": [
        {
          "internalType": "uint256",
          "name": "_zombieId",
          "type": "uint256"
        },
        {
          "internalType": "uint256",
          "name": "_targetId",
          "type": "uint256"
        }
      ],
      "name": "attack",
      "outputs": [],
      "stateMutability": "nonpayable",
      "type": "function"
    },
    {
      "inputs": [
        {
          "internalType": "address",
          "name": "_owner",
          "type": "address"
        }
      ],
      "name": "balanceOf",
      "outputs": [
        {
          "internalType": "uint256",
          "name": "",
          "type": "uint256"
        }
      ],
      "stateMutability": "view",
      "type": "function"
    },
    {
      "inputs": [
        {
          "internalType": "uint256",
          "name": "_zombieId",
          "type": "uint256"
        },
        {
          "internalType": "uint256",
          "name": "_newDna",
          "type": "uint256"
        }
      ],
      "name": "changeDna",
      "outputs": [],
      "stateMutability": "nonpayable",
      "type": "function"
    },
    {
      "inputs": [
        {
          "internalType": "uint256",
          "name": "_zombieId",
          "type": "uint256"
        },
        {
          "internalType": "string",
          "name": "_newName",
          "type": "string"
        }
      ],
      "name": "changeName",
      "outputs": [],
      "stateMutability": "nonpayable",
      "type": "function"
    },
    {
      "inputs": [
        {
          "internalType": "string",
          "name": "_name",
          "type": "string"
        }
      ],
      "name": "createRandomZombie",
      "outputs": [],
      "stateMutability": "nonpayable",
      "type": "function"
    },
    {
      "inputs": [
        {
          "internalType": "uint256",
          "name": "_zombieId",
          "type": "uint256"
        },
        {
          "internalType": "uint256",
          "name": "_kittyId",
          "type": "uint256"
        }
      ],
      "name": "feedOnKitty",
      "outputs": [],
      "stateMutability": "nonpayable",
      "type": "function"
    },
    {
      "inputs": [
        {
          "internalType": "address",
          "name": "_owner",
          "type": "address"
        }
      ],
      "name": "getZombiesByOwner",
      "outputs": [
        {
          "internalType": "uint256[]",
          "name": "",
          "type": "uint256[]"
        }
      ],
      "stateMutability": "view",
      "type": "function"
    },
    {
      "inputs": [
        {
          "internalType": "uint256",
          "name": "_zombieId",
          "type": "uint256"
        }
      ],
      "name": "levelUp",
      "outputs": [],
      "stateMutability": "payable",
      "type": "function"
    },
    {
      "inputs": [],
      "name": "owner",
      "outputs": [
        {
          "internalType": "address",
          "name": "",
          "type": "address"
        }
      ],
      "stateMutability": "view",
      "type": "function"
    },
    {
      "inputs": [
        {
          "internalType": "uint256",
          "name": "_tokenId",
          "type": "uint256"
        }
      ],
      "name": "ownerOf",
      "outputs": [
        {
          "internalType": "address",
          "name": "",
          "type": "address"
        }
      ],
      "stateMutability": "view",
      "type": "function"
    },
    {
      "inputs": [],
      "name": "renounceOwnership",
      "outputs": [],
      "stateMutability": "nonpayable",
      "type": "function"
    },
    {
      "inputs": [
        {
          "internalType": "address",
          "name": "_address",
          "type": "address"
        }
      ],
      "name": "setKittyContractAddress",
      "outputs": [],
      "stateMutability": "nonpayable",
      "type": "function"
    },
    {
      "inputs": [
        {
          "internalType": "uint256",
          "name": "_fee",
          "type": "uint256"
        }
      ],
      "name": "setLevelUpFee",
      "outputs": [],
      "stateMutability": "nonpayable",
      "type": "function"
    },
    {
      "inputs": [
        {
          "internalType": "address",
          "name": "_from",
          "type": "address"
        },
        {
          "internalType": "address",
          "name": "_to",
          "type": "address"
        },
        {
          "internalType": "uint256",
          "name": "_tokenId",
          "type": "uint256"
        }
      ],
      "name": "transferFrom",
      "outputs": [],
      "stateMutability": "payable",
      "type": "function"
    },
    {
      "inputs": [
        {
          "internalType": "address",
          "name": "newOwner",
          "type": "address"
        }
      ],
      "name": "transferOwnership",
      "outputs": [],
      "stateMutability": "nonpayable",
      "type": "function"
    },
    {
      "inputs": [],
      "name": "withdraw",
      "outputs": [],
      "stateMutability": "nonpayable",
      "type": "function"
    },
    {
      "inputs": [
        {
          "internalType": "uint256",
          "name": "",
          "type": "uint256"
        }
      ],
      "name": "zombieToOwner",
      "outputs": [
        {
          "internalType": "address",
          "name": "",
          "type": "address"
        }
      ],
      "stateMutability": "view",
      "type": "function"
    },
    {
      "inputs": [
        {
          "internalType": "uint256",
          "name": "",
          "type": "uint256"
        }
      ],
      "name": "zombies",
      "outputs": [
        {
          "internalType": "string",
          "name": "name",
          "type": "string"
        },
        {
          "internalType": "uint256",
          "name": "dna",
          "type": "uint256"
        },
        {
          "internalType": "uint32",
          "name": "level",
          "type": "uint32"
        },
        {
          "internalType": "uint32",
          "name": "readyTime",
          "type": "uint32"
        },
        {
          "internalType": "uint16",
          "name": "winCount",
          "type": "uint16"
        },
        {
          "internalType": "uint16",
          "name": "lossCount",
          "type": "uint16"
        }
      ],
      "stateMutability": "view",
      "type": "function"
    }
  ],
  "bytecode": "0x60806040526010600155600154600a6100189190610256565b6002556201518060035566038d7ea4c6800060085560006009556046600a5534801561004357600080fd5b506000339050806000806101000a81548173ffffffffffffffffffffffffffffffffffffffff021916908373ffffffffffffffffffffffffffffffffffffffff1602179055508073ffffffffffffffffffffffffffffffffffffffff16600073ffffffffffffffffffffffffffffffffffffffff167f8be0079c531659141344cd1fd0a4f28419497f9722a3daafe3b4186f6b6457e060405160405180910390a3506102a1565b7f4e487b7100000000000000000000000000000000000000000000000000000000600052601160045260246000fd5b60008160011c9050919050565b6000808291508390505b60018511156101705780860481111561014c5761014b6100ea565b5b600185161561015b5780820291505b808102905061016985610119565b9450610130565b94509492505050565b6000826101895760019050610245565b816101975760009050610245565b81600181146101ad57600281146101b7576101e6565b6001915050610245565b60ff8411156101c9576101c86100ea565b5b8360020a9150848211156101e0576101df6100ea565b5b50610245565b5060208310610133831016604e8410600b841016171561021b5782820a905083811115610216576102156100ea565b5b610245565b6102288484846001610126565b9250905081840481111561023f5761023e6100ea565b5b81810290505b9392505050565b6000819050919050565b60006102618261024c565b915061026c8361024c565b92506102997fffffffffffffffffffffffffffffffffffffffffffffffffffffffffffffffff8484610179565b905092915050565b612da0806102b06000396000f3fe6080604052600436106101145760003560e01c80635faf2880116100a05780638da5cb5b116100645780638da5cb5b14610375578063c39cbef1146103a0578063ccf670f8146103c9578063e1fa7638146103f2578063f2fde38b1461041b57610114565b80635faf2880146102925780636352211e146102bb57806370a08231146102f8578063715018a6146103355780637bff0a011461034c57610114565b806323b872dd116100e757806323b872dd146101bc5780633ccfd60b146101d85780634412e104146101ef578063528b7b8f1461022c5780635f4623f11461026957610114565b8063095ea7b3146101195780630ce90ec21461013557806317a7f4cc146101515780632052465e1461017a575b600080fd5b610133600480360381019061012e9190611de0565b610444565b005b61014f600480360381019061014a9190611e20565b610562565b005b34801561015d57600080fd5b5061017860048036038101906101739190611e4d565b610605565b005b34801561018657600080fd5b506101a1600480360381019061019c9190611e20565b610723565b6040516101b396959493929190611f68565b60405180910390f35b6101d660048036038101906101d19190611fd0565b610833565b005b3480156101e457600080fd5b506101ed610917565b005b3480156101fb57600080fd5b5061021660048036038101906102119190612023565b6109fb565b604051610223919061210e565b60405180910390f35b34801561023857600080fd5b50610253600480360381019061024e9190611e20565b610b47565b604051610260919061213f565b60405180910390f35b34801561027557600080fd5b50610290600480360381019061028b9190612023565b610b7a565b005b34801561029e57600080fd5b506102b960048036038101906102b49190611e4d565b610c4c565b005b3480156102c757600080fd5b506102e260048036038101906102dd9190611e20565b610d34565b6040516102ef919061213f565b60405180910390f35b34801561030457600080fd5b5061031f600480360381019061031a9190612023565b610d71565b60405161032c919061215a565b60405180910390f35b34801561034157600080fd5b5061034a610dba565b005b34801561035857600080fd5b50610373600480360381019061036e91906122aa565b610f06565b005b34801561038157600080fd5b5061038a610f87565b604051610397919061213f565b60405180910390f35b3480156103ac57600080fd5b506103c760048036038101906103c29190612353565b610fb0565b005b3480156103d557600080fd5b506103f060048036038101906103eb9190611e20565b6110a4565b005b3480156103fe57600080fd5b5061041960048036038101906104149190611e4d565b61113c565b005b34801561042757600080fd5b50610442600480360381019061043d9190612023565b6113d6565b005b806005600082815260200190815260200160002060009054906101000a900473ffffffffffffffffffffffffffffffffffffffff1673ffffffffffffffffffffffffffffffffffffffff163373ffffffffffffffffffffffffffffffffffffffff16146104b057600080fd5b82600b600084815260200190815260200160002060006101000a81548173ffffffffffffffffffffffffffffffffffffffff021916908373ffffffffffffffffffffffffffffffffffffffff160217905550818373ffffffffffffffffffffffffffffffffffffffff163373ffffffffffffffffffffffffffffffffffffffff167f8c5be1e5ebec7d5bd14f71427d1e84f3dd0314c0f7b2291e5b200ac8c7c3b92560405160405180910390a4505050565b600854341461057057600080fd5b6105bf600160048381548110610589576105886123b3565b5b906000526020600020906003020160020160009054906101000a900463ffffffff1663ffffffff1661159090919063ffffffff16565b600482815481106105d3576105d26123b3565b5b906000526020600020906003020160020160006101000a81548163ffffffff021916908363ffffffff16021790555050565b6000600760009054906101000a900473ffffffffffffffffffffffffffffffffffffffff1673ffffffffffffffffffffffffffffffffffffffff1663e98b7f4d836040518263ffffffff1660e01b8152600401610662919061215a565b61014060405180830381865afa158015610680573d6000803e3d6000fd5b505050506040513d601f19601f820116820180604052508101906106a4919061242f565b9091929394959697985090919293949596975090919293949596509091929394955090919293945090919293509091925090915090508091505061071e83826040518060400160405280600581526020017f6b697474790000000000000000000000000000000000000000000000000000008152506115c8565b505050565b6004818154811061073357600080fd5b90600052602060002090600302016000915090508060000180546107569061253d565b80601f01602080910402602001604051908101604052809291908181526020018280546107829061253d565b80156107cf5780601f106107a4576101008083540402835291602001916107cf565b820191906000526020600020905b8154815290600101906020018083116107b257829003601f168201915b5050505050908060010154908060020160009054906101000a900463ffffffff16908060020160049054906101000a900463ffffffff16908060020160089054906101000a900461ffff169080600201600a9054906101000a900461ffff16905086565b3373ffffffffffffffffffffffffffffffffffffffff166005600083815260200190815260200160002060009054906101000a900473ffffffffffffffffffffffffffffffffffffffff1673ffffffffffffffffffffffffffffffffffffffff1614806108fe57503373ffffffffffffffffffffffffffffffffffffffff16600b600083815260200190815260200160002060009054906101000a900473ffffffffffffffffffffffffffffffffffffffff1673ffffffffffffffffffffffffffffffffffffffff16145b61090757600080fd5b610912838383611764565b505050565b3373ffffffffffffffffffffffffffffffffffffffff1660008054906101000a900473ffffffffffffffffffffffffffffffffffffffff1673ffffffffffffffffffffffffffffffffffffffff16146109a5576040517f08c379a000000000000000000000000000000000000000000000000000000000815260040161099c906125ba565b60405180910390fd5b60006109af610f87565b90508073ffffffffffffffffffffffffffffffffffffffff166108fc479081150290604051600060405180830381858888f193505050501580156109f7573d6000803e3d6000fd5b5050565b60606000600660008473ffffffffffffffffffffffffffffffffffffffff1673ffffffffffffffffffffffffffffffffffffffff1681526020019081526020016000205467ffffffffffffffff811115610a5857610a5761217f565b5b604051908082528060200260200182016040528015610a865781602001602082028036833780820191505090505b5090506000805b600480549050811015610b3c578473ffffffffffffffffffffffffffffffffffffffff166005600083815260200190815260200160002060009054906101000a900473ffffffffffffffffffffffffffffffffffffffff1673ffffffffffffffffffffffffffffffffffffffff1603610b2f5780838381518110610b1457610b136123b3565b5b6020026020010181815250508180610b2b90612609565b9250505b8080600101915050610a8d565b508192505050919050565b60056020528060005260406000206000915054906101000a900473ffffffffffffffffffffffffffffffffffffffff1681565b3373ffffffffffffffffffffffffffffffffffffffff1660008054906101000a900473ffffffffffffffffffffffffffffffffffffffff1673ffffffffffffffffffffffffffffffffffffffff1614610c08576040517f08c379a0000000000000000000000000000000000000000000000000000000008152600401610bff906125ba565b60405180910390fd5b80600760006101000a81548173ffffffffffffffffffffffffffffffffffffffff021916908373ffffffffffffffffffffffffffffffffffffffff16021790555050565b6014828160048281548110610c6457610c636123b3565b5b906000526020600020906003020160020160009054906101000a900463ffffffff1663ffffffff161015610c9757600080fd5b836005600082815260200190815260200160002060009054906101000a900473ffffffffffffffffffffffffffffffffffffffff1673ffffffffffffffffffffffffffffffffffffffff163373ffffffffffffffffffffffffffffffffffffffff1614610d0357600080fd5b8360048681548110610d1857610d176123b3565b5b9060005260206000209060030201600101819055505050505050565b60006005600083815260200190815260200160002060009054906101000a900473ffffffffffffffffffffffffffffffffffffffff169050919050565b6000600660008373ffffffffffffffffffffffffffffffffffffffff1673ffffffffffffffffffffffffffffffffffffffff168152602001908152602001600020549050919050565b3373ffffffffffffffffffffffffffffffffffffffff1660008054906101000a900473ffffffffffffffffffffffffffffffffffffffff1673ffffffffffffffffffffffffffffffffffffffff1614610e48576040517f08c379a0000000000000000000000000000000000000000000000000000000008152600401610e3f906125ba565b60405180910390fd5b600073ffffffffffffffffffffffffffffffffffffffff1660008054906101000a900473ffffffffffffffffffffffffffffffffffffffff1673ffffffffffffffffffffffffffffffffffffffff167f8be0079c531659141344cd1fd0a4f28419497f9722a3daafe3b4186f6b6457e060405160405180910390a360008060006101000a81548173ffffffffffffffffffffffffffffffffffffffff021916908373ffffffffffffffffffffffffffffffffffffffff160217905550565b6000600660003373ffffffffffffffffffffffffffffffffffffffff1673ffffffffffffffffffffffffffffffffffffffff1681526020019081526020016000205414610f5257600080fd5b6000610f5d82611942565b9050606481610f6c9190612680565b81610f7791906126b1565b9050610f838282611987565b5050565b60008060009054906101000a900473ffffffffffffffffffffffffffffffffffffffff16905090565b6002838160048281548110610fc857610fc76123b3565b5b906000526020600020906003020160020160009054906101000a900463ffffffff1663ffffffff161015610ffb57600080fd5b846005600082815260200190815260200160002060009054906101000a900473ffffffffffffffffffffffffffffffffffffffff1673ffffffffffffffffffffffffffffffffffffffff163373ffffffffffffffffffffffffffffffffffffffff161461106757600080fd5b84846004888154811061107d5761107c6123b3565b5b9060005260206000209060030201600001918261109b92919061289c565b50505050505050565b3373ffffffffffffffffffffffffffffffffffffffff1660008054906101000a900473ffffffffffffffffffffffffffffffffffffffff1673ffffffffffffffffffffffffffffffffffffffff1614611132576040517f08c379a0000000000000000000000000000000000000000000000000000000008152600401611129906125ba565b60405180910390fd5b8060088190555050565b816005600082815260200190815260200160002060009054906101000a900473ffffffffffffffffffffffffffffffffffffffff1673ffffffffffffffffffffffffffffffffffffffff163373ffffffffffffffffffffffffffffffffffffffff16146111a857600080fd5b6000600484815481106111be576111bd6123b3565b5b906000526020600020906003020190506000600484815481106111e4576111e36123b3565b5b9060005260206000209060030201905060006112006064611bf7565b9050600a5481116113345761123560018460020160089054906101000a900461ffff1661ffff16611c5790919063ffffffff16565b8360020160086101000a81548161ffff021916908361ffff16021790555061128160018460020160009054906101000a900463ffffffff1663ffffffff1661159090919063ffffffff16565b8360020160006101000a81548163ffffffff021916908363ffffffff1602179055506112cd600183600201600a9054906101000a900461ffff1661ffff16611c5790919063ffffffff16565b82600201600a6101000a81548161ffff021916908361ffff16021790555061132f8683600101546040518060400160405280600681526020017f7a6f6d62696500000000000000000000000000000000000000000000000000008152506115c8565b6113ce565b61135e600184600201600a9054906101000a900461ffff1661ffff16611c5790919063ffffffff16565b83600201600a6101000a81548161ffff021916908361ffff1602179055506113a660018360020160089054906101000a900461ffff1661ffff16611c5790919063ffffffff16565b8260020160086101000a81548161ffff021916908361ffff1602179055506113cd83611c8b565b5b505050505050565b3373ffffffffffffffffffffffffffffffffffffffff1660008054906101000a900473ffffffffffffffffffffffffffffffffffffffff1673ffffffffffffffffffffffffffffffffffffffff1614611464576040517f08c379a000000000000000000000000000000000000000000000000000000000815260040161145b906125ba565b60405180910390fd5b600073ffffffffffffffffffffffffffffffffffffffff168173ffffffffffffffffffffffffffffffffffffffff16036114d3576040517f08c379a00000000000000000000000000000000000000000000000000000000081526004016114ca906129de565b60405180910390fd5b8073ffffffffffffffffffffffffffffffffffffffff1660008054906101000a900473ffffffffffffffffffffffffffffffffffffffff1673ffffffffffffffffffffffffffffffffffffffff167f8be0079c531659141344cd1fd0a4f28419497f9722a3daafe3b4186f6b6457e060405160405180910390a3806000806101000a81548173ffffffffffffffffffffffffffffffffffffffff021916908373ffffffffffffffffffffffffffffffffffffffff16021790555050565b600080828461159f91906129fe565b90508363ffffffff168163ffffffff1610156115be576115bd612a36565b5b8091505092915050565b826005600082815260200190815260200160002060009054906101000a900473ffffffffffffffffffffffffffffffffffffffff1673ffffffffffffffffffffffffffffffffffffffff163373ffffffffffffffffffffffffffffffffffffffff161461163457600080fd5b60006004858154811061164a576116496123b3565b5b9060005260206000209060030201905061166381611cbe565b61166c57600080fd5b6002548461167a9190612680565b9350600060028583600101546116909190612a65565b61169a9190612a99565b90506040516020016116ab90612b21565b60405160208183030381529060405280519060200120846040516020016116d29190612b67565b60405160208183030381529060405280519060200120036117145760636064826116fc9190612680565b8261170791906126b1565b6117119190612a65565b90505b6117536040518060400160405280600681526020017f4e6f4e616d65000000000000000000000000000000000000000000000000000081525082611987565b61175c82611c8b565b505050505050565b6117b76001600660008573ffffffffffffffffffffffffffffffffffffffff1673ffffffffffffffffffffffffffffffffffffffff16815260200190815260200160002054611ce590919063ffffffff16565b600660008473ffffffffffffffffffffffffffffffffffffffff1673ffffffffffffffffffffffffffffffffffffffff1681526020019081526020016000208190555061184d6001600660003373ffffffffffffffffffffffffffffffffffffffff1673ffffffffffffffffffffffffffffffffffffffff16815260200190815260200160002054611d1190919063ffffffff16565b600660003373ffffffffffffffffffffffffffffffffffffffff1673ffffffffffffffffffffffffffffffffffffffff16815260200190815260200160002081905550816005600083815260200190815260200160002060006101000a81548173ffffffffffffffffffffffffffffffffffffffff021916908373ffffffffffffffffffffffffffffffffffffffff160217905550808273ffffffffffffffffffffffffffffffffffffffff168473ffffffffffffffffffffffffffffffffffffffff167fddf252ad1be2c89b69c2b068fc378daa952ba7f163c4a11628f55a4df523b3ef60405160405180910390a4505050565b600080826040516020016119569190612b67565b6040516020818303038152906040528051906020012060001c90506002548161197f9190612680565b915050919050565b60046040518060c00160405280848152602001838152602001600163ffffffff168152602001600354426119bb9190612a65565b63ffffffff168152602001600061ffff168152602001600061ffff1681525090806001815401808255809150506001900390600052602060002090600302016000909190919091506000820151816000019081611a189190612b7e565b506020820151816001015560408201518160020160006101000a81548163ffffffff021916908363ffffffff16021790555060608201518160020160046101000a81548163ffffffff021916908363ffffffff16021790555060808201518160020160086101000a81548161ffff021916908361ffff16021790555060a082015181600201600a6101000a81548161ffff021916908361ffff160217905550505060006001600480549050611acd91906126b1565b9050336005600083815260200190815260200160002060006101000a81548173ffffffffffffffffffffffffffffffffffffffff021916908373ffffffffffffffffffffffffffffffffffffffff160217905550611b746001600660003373ffffffffffffffffffffffffffffffffffffffff1673ffffffffffffffffffffffffffffffffffffffff16815260200190815260200160002054611ce590919063ffffffff16565b600660003373ffffffffffffffffffffffffffffffffffffffff1673ffffffffffffffffffffffffffffffffffffffff168152602001908152602001600020819055507f88f026aacbbecc90c18411df4b1185fd8d9be2470f1962f192bf84a27d0704b7818484604051611bea93929190612c50565b60405180910390a1505050565b6000611c0f6001600954611ce590919063ffffffff16565b600981905550814233600954604051602001611c2d93929190612cf7565b6040516020818303038152906040528051906020012060001c611c509190612680565b9050919050565b6000808284611c669190612d34565b90508361ffff168161ffff161015611c8157611c80612a36565b5b8091505092915050565b60035442611c999190612a65565b8160020160046101000a81548163ffffffff021916908363ffffffff16021790555050565b6000428260020160049054906101000a900463ffffffff1663ffffffff1611159050919050565b6000808284611cf49190612a65565b905083811015611d0757611d06612a36565b5b8091505092915050565b600082821115611d2457611d23612a36565b5b8183611d3091906126b1565b905092915050565b6000604051905090565b600080fd5b600080fd5b600073ffffffffffffffffffffffffffffffffffffffff82169050919050565b6000611d7782611d4c565b9050919050565b611d8781611d6c565b8114611d9257600080fd5b50565b600081359050611da481611d7e565b92915050565b6000819050919050565b611dbd81611daa565b8114611dc857600080fd5b50565b600081359050611dda81611db4565b92915050565b60008060408385031215611df757611df6611d42565b5b6000611e0585828601611d95565b9250506020611e1685828601611dcb565b9150509250929050565b600060208284031215611e3657611e35611d42565b5b6000611e4484828501611dcb565b91505092915050565b60008060408385031215611e6457611e63611d42565b5b6000611e7285828601611dcb565b9250506020611e8385828601611dcb565b9150509250929050565b600081519050919050565b600082825260208201905092915050565b60005b83811015611ec7578082015181840152602081019050611eac565b60008484015250505050565b6000601f19601f8301169050919050565b6000611eef82611e8d565b611ef98185611e98565b9350611f09818560208601611ea9565b611f1281611ed3565b840191505092915050565b611f2681611daa565b82525050565b600063ffffffff82169050919050565b611f4581611f2c565b82525050565b600061ffff82169050919050565b611f6281611f4b565b82525050565b600060c0820190508181036000830152611f828189611ee4565b9050611f916020830188611f1d565b611f9e6040830187611f3c565b611fab6060830186611f3c565b611fb86080830185611f59565b611fc560a0830184611f59565b979650505050505050565b600080600060608486031215611fe957611fe8611d42565b5b6000611ff786828701611d95565b935050602061200886828701611d95565b925050604061201986828701611dcb565b9150509250925092565b60006020828403121561203957612038611d42565b5b600061204784828501611d95565b91505092915050565b600081519050919050565b600082825260208201905092915050565b6000819050602082019050919050565b61208581611daa565b82525050565b6000612097838361207c565b60208301905092915050565b6000602082019050919050565b60006120bb82612050565b6120c5818561205b565b93506120d08361206c565b8060005b838110156121015781516120e8888261208b565b97506120f3836120a3565b9250506001810190506120d4565b5085935050505092915050565b6000602082019050818103600083015261212881846120b0565b905092915050565b61213981611d6c565b82525050565b60006020820190506121546000830184612130565b92915050565b600060208201905061216f6000830184611f1d565b92915050565b600080fd5b600080fd5b7f4e487b7100000000000000000000000000000000000000000000000000000000600052604160045260246000fd5b6121b782611ed3565b810181811067ffffffffffffffff821117156121d6576121d561217f565b5b80604052505050565b60006121e9611d38565b90506121f582826121ae565b919050565b600067ffffffffffffffff8211156122155761221461217f565b5b61221e82611ed3565b9050602081019050919050565b82818337600083830152505050565b600061224d612248846121fa565b6121df565b9050828152602081018484840111156122695761226861217a565b5b61227484828561222b565b509392505050565b600082601f83011261229157612290612175565b5b81356122a184826020860161223a565b91505092915050565b6000602082840312156122c0576122bf611d42565b5b600082013567ffffffffffffffff8111156122de576122dd611d47565b5b6122ea8482850161227c565b91505092915050565b600080fd5b600080fd5b60008083601f84011261231357612312612175565b5b8235905067ffffffffffffffff8111156123305761232f6122f3565b5b60208301915083600182028301111561234c5761234b6122f8565b5b9250929050565b60008060006040848603121561236c5761236b611d42565b5b600061237a86828701611dcb565b935050602084013567ffffffffffffffff81111561239b5761239a611d47565b5b6123a7868287016122fd565b92509250509250925092565b7f4e487b7100000000000000000000000000000000000000000000000000000000600052603260045260246000fd5b60008115159050919050565b6123f7816123e2565b811461240257600080fd5b50565b600081519050612414816123ee565b92915050565b60008151905061242981611db4565b92915050565b6000806000806000806000806000806101408b8d03121561245357612452611d42565b5b60006124618d828e01612405565b9a505060206124728d828e01612405565b99505060406124838d828e0161241a565b98505060606124948d828e0161241a565b97505060806124a58d828e0161241a565b96505060a06124b68d828e0161241a565b95505060c06124c78d828e0161241a565b94505060e06124d88d828e0161241a565b9350506101006124ea8d828e0161241a565b9250506101206124fc8d828e0161241a565b9150509295989b9194979a5092959850565b7f4e487b7100000000000000000000000000000000000000000000000000000000600052602260045260246000fd5b6000600282049050600182168061255557607f821691505b6020821081036125685761256761250e565b5b50919050565b7f4f776e61626c653a2063616c6c6572206973206e6f7420746865206f776e6572600082015250565b60006125a4602083611e98565b91506125af8261256e565b602082019050919050565b600060208201905081810360008301526125d381612597565b9050919050565b7f4e487b7100000000000000000000000000000000000000000000000000000000600052601160045260246000fd5b600061261482611daa565b91507fffffffffffffffffffffffffffffffffffffffffffffffffffffffffffffffff8203612646576126456125da565b5b600182019050919050565b7f4e487b7100000000000000000000000000000000000000000000000000000000600052601260045260246000fd5b600061268b82611daa565b915061269683611daa565b9250826126a6576126a5612651565b5b828206905092915050565b60006126bc82611daa565b91506126c783611daa565b92508282039050818111156126df576126de6125da565b5b92915050565b600082905092915050565b60008190508160005260206000209050919050565b60006020601f8301049050919050565b600082821b905092915050565b6000600883026127527fffffffffffffffffffffffffffffffffffffffffffffffffffffffffffffffff82612715565b61275c8683612715565b95508019841693508086168417925050509392505050565b6000819050919050565b600061279961279461278f84611daa565b612774565b611daa565b9050919050565b6000819050919050565b6127b38361277e565b6127c76127bf826127a0565b848454612722565b825550505050565b600090565b6127dc6127cf565b6127e78184846127aa565b505050565b5b8181101561280b576128006000826127d4565b6001810190506127ed565b5050565b601f82111561285057612821816126f0565b61282a84612705565b81016020851015612839578190505b61284d61284585612705565b8301826127ec565b50505b505050565b600082821c905092915050565b600061287360001984600802612855565b1980831691505092915050565b600061288c8383612862565b9150826002028217905092915050565b6128a683836126e5565b67ffffffffffffffff8111156128bf576128be61217f565b5b6128c9825461253d565b6128d482828561280f565b6000601f83116001811461290357600084156128f1578287013590505b6128fb8582612880565b865550612963565b601f198416612911866126f0565b60005b8281101561293957848901358255600182019150602085019450602081019050612914565b868310156129565784890135612952601f891682612862565b8355505b6001600288020188555050505b50505050505050565b7f4f776e61626c653a206e6577206f776e657220697320746865207a65726f206160008201527f6464726573730000000000000000000000000000000000000000000000000000602082015250565b60006129c8602683611e98565b91506129d38261296c565b604082019050919050565b600060208201905081810360008301526129f7816129bb565b9050919050565b6000612a0982611f2c565b9150612a1483611f2c565b9250828201905063ffffffff811115612a3057612a2f6125da565b5b92915050565b7f4e487b7100000000000000000000000000000000000000000000000000000000600052600160045260246000fd5b6000612a7082611daa565b9150612a7b83611daa565b9250828201905080821115612a9357612a926125da565b5b92915050565b6000612aa482611daa565b9150612aaf83611daa565b925082612abf57612abe612651565b5b828204905092915050565b600081905092915050565b7f6b69747479000000000000000000000000000000000000000000000000000000600082015250565b6000612b0b600583612aca565b9150612b1682612ad5565b600582019050919050565b6000612b2c82612afe565b9150819050919050565b6000612b4182611e8d565b612b4b8185612aca565b9350612b5b818560208601611ea9565b80840191505092915050565b6000612b738284612b36565b915081905092915050565b612b8782611e8d565b67ffffffffffffffff811115612ba057612b9f61217f565b5b612baa825461253d565b612bb582828561280f565b600060209050601f831160018114612be85760008415612bd6578287015190505b612be08582612880565b865550612c48565b601f198416612bf6866126f0565b60005b82811015612c1e57848901518255600182019150602085019450602081019050612bf9565b86831015612c3b5784890151612c37601f891682612862565b8355505b6001600288020188555050505b505050505050565b6000606082019050612c656000830186611f1d565b8181036020830152612c778185611ee4565b9050612c866040830184611f1d565b949350505050565b6000819050919050565b612ca9612ca482611daa565b612c8e565b82525050565b60008160601b9050919050565b6000612cc782612caf565b9050919050565b6000612cd982612cbc565b9050919050565b612cf1612cec82611d6c565b612cce565b82525050565b6000612d038286612c98565b602082019150612d138285612ce0565b601482019150612d238284612c98565b602082019150819050949350505050565b6000612d3f82611f4b565b9150612d4a83611f4b565b9250828201905061ffff811115612d6457612d636125da565b5b9291505056fea26469706673582212201eaaff5c02674619606b275b0b26fc6c057305ef0af27d6c92fc2b06b5b2157164736f6c634300081c0033",
  "linkReferences": {},
  "deployedLinkReferences": {}
}