{
  "_format": "hh-sol-artifact-1",
  "contractName": "ZombieFactory",
  "sourceName": "contracts/ZombieFactory.sol",
  "abi": [
    {
      "anonymous": false,
      "inputs": [
        {
          "indexed": false,
          "internalType": "uint256",
          "name": "zombieId",
          "type": "uint256"
        },
        {
          "indexed": false,
          "internalType": "string",
          "name": "name",
          "type": "string"
        },
        {
          "indexed": false,
          "internalType": "uint256",
          "name": "dna",
          "type": "uint256"
        }
      ],
      "name": "NewZombie",
      "type": "event"
    },
    {
      "anonymous": false,
      "inputs": [
        {
          "indexed": true,
          "internalType": "address",
          "name": "previousOwner",
          "type": "address"
        },
        {
          "indexed": true,
          "internalType": "address",
          "name": "newOwner",
          "type": "address"
        }
      ],
      "name": "OwnershipTransferred",
      "type": "event"
    },
    {
      "inputs": [
        {
          "internalType": "string",
          "name": "_name",
          "type": "string"
        }
      ],
      "name": "createRandomZombie",
      "outputs": [],
      "stateMutability": "nonpayable",
      "type": "function"
    },
    {
      "inputs": [],
      "name": "owner",
      "outputs": [
        {
          "internalType": "address",
          "name": "",
          "type": "address"
        }
      ],
      "stateMutability": "view",
      "type": "function"
    },
    {
      "inputs": [],
      "name": "renounceOwnership",
      "outputs": [],
      "stateMutability": "nonpayable",
      "type": "function"
    },
    {
      "inputs": [
        {
          "internalType": "address",
          "name": "newOwner",
          "type": "address"
        }
      ],
      "name": "transferOwnership",
      "outputs": [],
      "stateMutability": "nonpayable",
      "type": "function"
    },
    {
      "inputs": [
        {
          "internalType": "uint256",
          "name": "",
          "type": "uint256"
        }
      ],
      "name": "zombieToOwner",
      "outputs": [
        {
          "internalType": "address",
          "name": "",
          "type": "address"
        }
      ],
      "stateMutability": "view",
      "type": "function"
    },
    {
      "inputs": [
        {
          "internalType": "uint256",
          "name": "",
          "type": "uint256"
        }
      ],
      "name": "zombies",
      "outputs": [
        {
          "internalType": "string",
          "name": "name",
          "type": "string"
        },
        {
          "internalType": "uint256",
          "name": "dna",
          "type": "uint256"
        },
        {
          "internalType": "uint32",
          "name": "level",
          "type": "uint32"
        },
        {
          "internalType": "uint32",
          "name": "readyTime",
          "type": "uint32"
        },
        {
          "internalType": "uint16",
          "name": "winCount",
          "type": "uint16"
        },
        {
          "internalType": "uint16",
          "name": "lossCount",
          "type": "uint16"
        }
      ],
      "stateMutability": "view",
      "type": "function"
    }
  ],
  "bytecode": "0x60806040526010600155600154600a6100189190610241565b6002556201518060035534801561002e57600080fd5b506000339050806000806101000a81548173ffffffffffffffffffffffffffffffffffffffff021916908373ffffffffffffffffffffffffffffffffffffffff1602179055508073ffffffffffffffffffffffffffffffffffffffff16600073ffffffffffffffffffffffffffffffffffffffff167f8be0079c531659141344cd1fd0a4f28419497f9722a3daafe3b4186f6b6457e060405160405180910390a35061028c565b7f4e487b7100000000000000000000000000000000000000000000000000000000600052601160045260246000fd5b60008160011c9050919050565b6000808291508390505b600185111561015b57808604811115610137576101366100d5565b5b60018516156101465780820291505b808102905061015485610104565b945061011b565b94509492505050565b6000826101745760019050610230565b816101825760009050610230565b816001811461019857600281146101a2576101d1565b6001915050610230565b60ff8411156101b4576101b36100d5565b5b8360020a9150848211156101cb576101ca6100d5565b5b50610230565b5060208310610133831016604e8410600b84101617156102065782820a905083811115610201576102006100d5565b5b610230565b6102138484846001610111565b9250905081840481111561022a576102296100d5565b5b81810290505b9392505050565b6000819050919050565b600061024c82610237565b915061025783610237565b92506102847fffffffffffffffffffffffffffffffffffffffffffffffffffffffffffffffff8484610164565b905092915050565b6112b68061029b6000396000f3fe608060405234801561001057600080fd5b50600436106100625760003560e01c80632052465e14610067578063528b7b8f1461009c578063715018a6146100cc5780637bff0a01146100d65780638da5cb5b146100f2578063f2fde38b14610110575b600080fd5b610081600480360381019061007c919061094a565b61012c565b60405161009396959493929190610a52565b60405180910390f35b6100b660048036038101906100b1919061094a565b61023c565b6040516100c39190610afb565b60405180910390f35b6100d461026f565b005b6100f060048036038101906100eb9190610c4b565b6103bb565b005b6100fa61043c565b6040516101079190610afb565b60405180910390f35b61012a60048036038101906101259190610cc0565b610465565b005b6004818154811061013c57600080fd5b906000526020600020906003020160009150905080600001805461015f90610d1c565b80601f016020809104026020016040519081016040528092919081815260200182805461018b90610d1c565b80156101d85780601f106101ad576101008083540402835291602001916101d8565b820191906000526020600020905b8154815290600101906020018083116101bb57829003601f168201915b5050505050908060010154908060020160009054906101000a900463ffffffff16908060020160049054906101000a900463ffffffff16908060020160089054906101000a900461ffff169080600201600a9054906101000a900461ffff16905086565b60056020528060005260406000206000915054906101000a900473ffffffffffffffffffffffffffffffffffffffff1681565b3373ffffffffffffffffffffffffffffffffffffffff1660008054906101000a900473ffffffffffffffffffffffffffffffffffffffff1673ffffffffffffffffffffffffffffffffffffffff16146102fd576040517f08c379a00000000000000000000000000000000000000000000000000000000081526004016102f490610d99565b60405180910390fd5b600073ffffffffffffffffffffffffffffffffffffffff1660008054906101000a900473ffffffffffffffffffffffffffffffffffffffff1673ffffffffffffffffffffffffffffffffffffffff167f8be0079c531659141344cd1fd0a4f28419497f9722a3daafe3b4186f6b6457e060405160405180910390a360008060006101000a81548173ffffffffffffffffffffffffffffffffffffffff021916908373ffffffffffffffffffffffffffffffffffffffff160217905550565b6000600660003373ffffffffffffffffffffffffffffffffffffffff1673ffffffffffffffffffffffffffffffffffffffff168152602001908152602001600020541461040757600080fd5b60006104128261061f565b90506064816104219190610de8565b8161042c9190610e48565b90506104388282610664565b5050565b60008060009054906101000a900473ffffffffffffffffffffffffffffffffffffffff16905090565b3373ffffffffffffffffffffffffffffffffffffffff1660008054906101000a900473ffffffffffffffffffffffffffffffffffffffff1673ffffffffffffffffffffffffffffffffffffffff16146104f3576040517f08c379a00000000000000000000000000000000000000000000000000000000081526004016104ea90610d99565b60405180910390fd5b600073ffffffffffffffffffffffffffffffffffffffff168173ffffffffffffffffffffffffffffffffffffffff1603610562576040517f08c379a000000000000000000000000000000000000000000000000000000000815260040161055990610eee565b60405180910390fd5b8073ffffffffffffffffffffffffffffffffffffffff1660008054906101000a900473ffffffffffffffffffffffffffffffffffffffff1673ffffffffffffffffffffffffffffffffffffffff167f8be0079c531659141344cd1fd0a4f28419497f9722a3daafe3b4186f6b6457e060405160405180910390a3806000806101000a81548173ffffffffffffffffffffffffffffffffffffffff021916908373ffffffffffffffffffffffffffffffffffffffff16021790555050565b600080826040516020016106339190610f4a565b6040516020818303038152906040528051906020012060001c90506002548161065c9190610de8565b915050919050565b60046040518060c00160405280848152602001838152602001600163ffffffff168152602001600354426106989190610f61565b63ffffffff168152602001600061ffff168152602001600061ffff16815250908060018154018082558091505060019003906000526020600020906003020160009091909190915060008201518160000190816106f59190611141565b506020820151816001015560408201518160020160006101000a81548163ffffffff021916908363ffffffff16021790555060608201518160020160046101000a81548163ffffffff021916908363ffffffff16021790555060808201518160020160086101000a81548161ffff021916908361ffff16021790555060a082015181600201600a6101000a81548161ffff021916908361ffff1602179055505050600060016004805490506107aa9190610e48565b9050336005600083815260200190815260200160002060006101000a81548173ffffffffffffffffffffffffffffffffffffffff021916908373ffffffffffffffffffffffffffffffffffffffff1602179055506108516001600660003373ffffffffffffffffffffffffffffffffffffffff1673ffffffffffffffffffffffffffffffffffffffff168152602001908152602001600020546108d490919063ffffffff16565b600660003373ffffffffffffffffffffffffffffffffffffffff1673ffffffffffffffffffffffffffffffffffffffff168152602001908152602001600020819055507f88f026aacbbecc90c18411df4b1185fd8d9be2470f1962f192bf84a27d0704b78184846040516108c793929190611213565b60405180910390a1505050565b60008082846108e39190610f61565b9050838110156108f6576108f5611251565b5b8091505092915050565b6000604051905090565b600080fd5b600080fd5b6000819050919050565b61092781610914565b811461093257600080fd5b50565b6000813590506109448161091e565b92915050565b6000602082840312156109605761095f61090a565b5b600061096e84828501610935565b91505092915050565b600081519050919050565b600082825260208201905092915050565b60005b838110156109b1578082015181840152602081019050610996565b60008484015250505050565b6000601f19601f8301169050919050565b60006109d982610977565b6109e38185610982565b93506109f3818560208601610993565b6109fc816109bd565b840191505092915050565b610a1081610914565b82525050565b600063ffffffff82169050919050565b610a2f81610a16565b82525050565b600061ffff82169050919050565b610a4c81610a35565b82525050565b600060c0820190508181036000830152610a6c81896109ce565b9050610a7b6020830188610a07565b610a886040830187610a26565b610a956060830186610a26565b610aa26080830185610a43565b610aaf60a0830184610a43565b979650505050505050565b600073ffffffffffffffffffffffffffffffffffffffff82169050919050565b6000610ae582610aba565b9050919050565b610af581610ada565b82525050565b6000602082019050610b106000830184610aec565b92915050565b600080fd5b600080fd5b7f4e487b7100000000000000000000000000000000000000000000000000000000600052604160045260246000fd5b610b58826109bd565b810181811067ffffffffffffffff82111715610b7757610b76610b20565b5b80604052505050565b6000610b8a610900565b9050610b968282610b4f565b919050565b600067ffffffffffffffff821115610bb657610bb5610b20565b5b610bbf826109bd565b9050602081019050919050565b82818337600083830152505050565b6000610bee610be984610b9b565b610b80565b905082815260208101848484011115610c0a57610c09610b1b565b5b610c15848285610bcc565b509392505050565b600082601f830112610c3257610c31610b16565b5b8135610c42848260208601610bdb565b91505092915050565b600060208284031215610c6157610c6061090a565b5b600082013567ffffffffffffffff811115610c7f57610c7e61090f565b5b610c8b84828501610c1d565b91505092915050565b610c9d81610ada565b8114610ca857600080fd5b50565b600081359050610cba81610c94565b92915050565b600060208284031215610cd657610cd561090a565b5b6000610ce484828501610cab565b91505092915050565b7f4e487b7100000000000000000000000000000000000000000000000000000000600052602260045260246000fd5b60006002820490506001821680610d3457607f821691505b602082108103610d4757610d46610ced565b5b50919050565b7f4f776e61626c653a2063616c6c6572206973206e6f7420746865206f776e6572600082015250565b6000610d83602083610982565b9150610d8e82610d4d565b602082019050919050565b60006020820190508181036000830152610db281610d76565b9050919050565b7f4e487b7100000000000000000000000000000000000000000000000000000000600052601260045260246000fd5b6000610df382610914565b9150610dfe83610914565b925082610e0e57610e0d610db9565b5b828206905092915050565b7f4e487b7100000000000000000000000000000000000000000000000000000000600052601160045260246000fd5b6000610e5382610914565b9150610e5e83610914565b9250828203905081811115610e7657610e75610e19565b5b92915050565b7f4f776e61626c653a206e6577206f776e657220697320746865207a65726f206160008201527f6464726573730000000000000000000000000000000000000000000000000000602082015250565b6000610ed8602683610982565b9150610ee382610e7c565b604082019050919050565b60006020820190508181036000830152610f0781610ecb565b9050919050565b600081905092915050565b6000610f2482610977565b610f2e8185610f0e565b9350610f3e818560208601610993565b80840191505092915050565b6000610f568284610f19565b915081905092915050565b6000610f6c82610914565b9150610f7783610914565b9250828201905080821115610f8f57610f8e610e19565b5b92915050565b60008190508160005260206000209050919050565b60006020601f8301049050919050565b600082821b905092915050565b600060088302610ff77fffffffffffffffffffffffffffffffffffffffffffffffffffffffffffffffff82610fba565b6110018683610fba565b95508019841693508086168417925050509392505050565b6000819050919050565b600061103e61103961103484610914565b611019565b610914565b9050919050565b6000819050919050565b61105883611023565b61106c61106482611045565b848454610fc7565b825550505050565b600090565b611081611074565b61108c81848461104f565b505050565b5b818110156110b0576110a5600082611079565b600181019050611092565b5050565b601f8211156110f5576110c681610f95565b6110cf84610faa565b810160208510156110de578190505b6110f26110ea85610faa565b830182611091565b50505b505050565b600082821c905092915050565b6000611118600019846008026110fa565b1980831691505092915050565b60006111318383611107565b9150826002028217905092915050565b61114a82610977565b67ffffffffffffffff81111561116357611162610b20565b5b61116d8254610d1c565b6111788282856110b4565b600060209050601f8311600181146111ab5760008415611199578287015190505b6111a38582611125565b86555061120b565b601f1984166111b986610f95565b60005b828110156111e1578489015182556001820191506020850194506020810190506111bc565b868310156111fe57848901516111fa601f891682611107565b8355505b6001600288020188555050505b505050505050565b60006060820190506112286000830186610a07565b818103602083015261123a81856109ce565b90506112496040830184610a07565b949350505050565b7f4e487b7100000000000000000000000000000000000000000000000000000000600052600160045260246000fdfea2646970667358221220d08400c6d8b42e3dbc55b8fa2367138569a247e871f1e108204f935068a3eb7c64736f6c634300081c0033",
  "linkReferences": {},
  "deployedLinkReferences": {}
}