{
  "_format": "hh-sol-artifact-1",
  "contractName": "ZombieFeeding",
  "sourceName": "contracts/ZombieFeeding.sol",
  "abi": [
    {
      "anonymous": false,
      "inputs": [
        {
          "indexed": false,
          "internalType": "uint256",
          "name": "zombieId",
          "type": "uint256"
        },
        {
          "indexed": false,
          "internalType": "string",
          "name": "name",
          "type": "string"
        },
        {
          "indexed": false,
          "internalType": "uint256",
          "name": "dna",
          "type": "uint256"
        }
      ],
      "name": "NewZombie",
      "type": "event"
    },
    {
      "anonymous": false,
      "inputs": [
        {
          "indexed": true,
          "internalType": "address",
          "name": "previousOwner",
          "type": "address"
        },
        {
          "indexed": true,
          "internalType": "address",
          "name": "newOwner",
          "type": "address"
        }
      ],
      "name": "OwnershipTransferred",
      "type": "event"
    },
    {
      "inputs": [
        {
          "internalType": "string",
          "name": "_name",
          "type": "string"
        }
      ],
      "name": "createRandomZombie",
      "outputs": [],
      "stateMutability": "nonpayable",
      "type": "function"
    },
    {
      "inputs": [
        {
          "internalType": "uint256",
          "name": "_zombieId",
          "type": "uint256"
        },
        {
          "internalType": "uint256",
          "name": "_kittyId",
          "type": "uint256"
        }
      ],
      "name": "feedOnKitty",
      "outputs": [],
      "stateMutability": "nonpayable",
      "type": "function"
    },
    {
      "inputs": [],
      "name": "owner",
      "outputs": [
        {
          "internalType": "address",
          "name": "",
          "type": "address"
        }
      ],
      "stateMutability": "view",
      "type": "function"
    },
    {
      "inputs": [],
      "name": "renounceOwnership",
      "outputs": [],
      "stateMutability": "nonpayable",
      "type": "function"
    },
    {
      "inputs": [
        {
          "internalType": "address",
          "name": "_address",
          "type": "address"
        }
      ],
      "name": "setKittyContractAddress",
      "outputs": [],
      "stateMutability": "nonpayable",
      "type": "function"
    },
    {
      "inputs": [
        {
          "internalType": "address",
          "name": "newOwner",
          "type": "address"
        }
      ],
      "name": "transferOwnership",
      "outputs": [],
      "stateMutability": "nonpayable",
      "type": "function"
    },
    {
      "inputs": [
        {
          "internalType": "uint256",
          "name": "",
          "type": "uint256"
        }
      ],
      "name": "zombieToOwner",
      "outputs": [
        {
          "internalType": "address",
          "name": "",
          "type": "address"
        }
      ],
      "stateMutability": "view",
      "type": "function"
    },
    {
      "inputs": [
        {
          "internalType": "uint256",
          "name": "",
          "type": "uint256"
        }
      ],
      "name": "zombies",
      "outputs": [
        {
          "internalType": "string",
          "name": "name",
          "type": "string"
        },
        {
          "internalType": "uint256",
          "name": "dna",
          "type": "uint256"
        },
        {
          "internalType": "uint32",
          "name": "level",
          "type": "uint32"
        },
        {
          "internalType": "uint32",
          "name": "readyTime",
          "type": "uint32"
        },
        {
          "internalType": "uint16",
          "name": "winCount",
          "type": "uint16"
        },
        {
          "internalType": "uint16",
          "name": "lossCount",
          "type": "uint16"
        }
      ],
      "stateMutability": "view",
      "type": "function"
    }
  ],
  "bytecode": "0x60806040526010600155600154600a6100189190610241565b6002556201518060035534801561002e57600080fd5b506000339050806000806101000a81548173ffffffffffffffffffffffffffffffffffffffff021916908373ffffffffffffffffffffffffffffffffffffffff1602179055508073ffffffffffffffffffffffffffffffffffffffff16600073ffffffffffffffffffffffffffffffffffffffff167f8be0079c531659141344cd1fd0a4f28419497f9722a3daafe3b4186f6b6457e060405160405180910390a35061028c565b7f4e487b7100000000000000000000000000000000000000000000000000000000600052601160045260246000fd5b60008160011c9050919050565b6000808291508390505b600185111561015b57808604811115610137576101366100d5565b5b60018516156101465780820291505b808102905061015485610104565b945061011b565b94509492505050565b6000826101745760019050610230565b816101825760009050610230565b816001811461019857600281146101a2576101d1565b6001915050610230565b60ff8411156101b4576101b36100d5565b5b8360020a9150848211156101cb576101ca6100d5565b5b50610230565b5060208310610133831016604e8410600b84101617156102065782820a905083811115610201576102006100d5565b5b610230565b6102138484846001610111565b9250905081840481111561022a576102296100d5565b5b81810290505b9392505050565b6000819050919050565b600061024c82610237565b915061025783610237565b92506102847fffffffffffffffffffffffffffffffffffffffffffffffffffffffffffffffff8484610164565b905092915050565b6119428061029b6000396000f3fe608060405234801561001057600080fd5b50600436106100885760003560e01c8063715018a61161005b578063715018a61461012a5780637bff0a01146101345780638da5cb5b14610150578063f2fde38b1461016e57610088565b806317a7f4cc1461008d5780632052465e146100a9578063528b7b8f146100de5780635f4623f11461010e575b600080fd5b6100a760048036038101906100a29190610d8e565b61018a565b005b6100c360048036038101906100be9190610dce565b6102a8565b6040516100d596959493929190610ed6565b60405180910390f35b6100f860048036038101906100f39190610dce565b6103b8565b6040516101059190610f7f565b60405180910390f35b61012860048036038101906101239190610fc6565b6103eb565b005b6101326104bd565b005b61014e60048036038101906101499190611128565b610609565b005b61015861068a565b6040516101659190610f7f565b60405180910390f35b61018860048036038101906101839190610fc6565b6106b3565b005b6000600760009054906101000a900473ffffffffffffffffffffffffffffffffffffffff1673ffffffffffffffffffffffffffffffffffffffff1663e98b7f4d836040518263ffffffff1660e01b81526004016101e79190611171565b61014060405180830381865afa158015610205573d6000803e3d6000fd5b505050506040513d601f19601f8201168201806040525081019061022991906111d9565b909192939495969798509091929394959697509091929394959650909192939495509091929394509091929350909192509091509050809150506102a383826040518060400160405280600581526020017f6b6974747900000000000000000000000000000000000000000000000000000081525061086d565b505050565b600481815481106102b857600080fd5b90600052602060002090600302016000915090508060000180546102db906112e7565b80601f0160208091040260200160405190810160405280929190818152602001828054610307906112e7565b80156103545780601f1061032957610100808354040283529160200191610354565b820191906000526020600020905b81548152906001019060200180831161033757829003601f168201915b5050505050908060010154908060020160009054906101000a900463ffffffff16908060020160049054906101000a900463ffffffff16908060020160089054906101000a900461ffff169080600201600a9054906101000a900461ffff16905086565b60056020528060005260406000206000915054906101000a900473ffffffffffffffffffffffffffffffffffffffff1681565b3373ffffffffffffffffffffffffffffffffffffffff1660008054906101000a900473ffffffffffffffffffffffffffffffffffffffff1673ffffffffffffffffffffffffffffffffffffffff1614610479576040517f08c379a000000000000000000000000000000000000000000000000000000000815260040161047090611364565b60405180910390fd5b80600760006101000a81548173ffffffffffffffffffffffffffffffffffffffff021916908373ffffffffffffffffffffffffffffffffffffffff16021790555050565b3373ffffffffffffffffffffffffffffffffffffffff1660008054906101000a900473ffffffffffffffffffffffffffffffffffffffff1673ffffffffffffffffffffffffffffffffffffffff161461054b576040517f08c379a000000000000000000000000000000000000000000000000000000000815260040161054290611364565b60405180910390fd5b600073ffffffffffffffffffffffffffffffffffffffff1660008054906101000a900473ffffffffffffffffffffffffffffffffffffffff1673ffffffffffffffffffffffffffffffffffffffff167f8be0079c531659141344cd1fd0a4f28419497f9722a3daafe3b4186f6b6457e060405160405180910390a360008060006101000a81548173ffffffffffffffffffffffffffffffffffffffff021916908373ffffffffffffffffffffffffffffffffffffffff160217905550565b6000600660003373ffffffffffffffffffffffffffffffffffffffff1673ffffffffffffffffffffffffffffffffffffffff168152602001908152602001600020541461065557600080fd5b600061066082610a09565b905060648161066f91906113b3565b8161067a9190611413565b90506106868282610a4e565b5050565b60008060009054906101000a900473ffffffffffffffffffffffffffffffffffffffff16905090565b3373ffffffffffffffffffffffffffffffffffffffff1660008054906101000a900473ffffffffffffffffffffffffffffffffffffffff1673ffffffffffffffffffffffffffffffffffffffff1614610741576040517f08c379a000000000000000000000000000000000000000000000000000000000815260040161073890611364565b60405180910390fd5b600073ffffffffffffffffffffffffffffffffffffffff168173ffffffffffffffffffffffffffffffffffffffff16036107b0576040517f08c379a00000000000000000000000000000000000000000000000000000000081526004016107a7906114b9565b60405180910390fd5b8073ffffffffffffffffffffffffffffffffffffffff1660008054906101000a900473ffffffffffffffffffffffffffffffffffffffff1673ffffffffffffffffffffffffffffffffffffffff167f8be0079c531659141344cd1fd0a4f28419497f9722a3daafe3b4186f6b6457e060405160405180910390a3806000806101000a81548173ffffffffffffffffffffffffffffffffffffffff021916908373ffffffffffffffffffffffffffffffffffffffff16021790555050565b826005600082815260200190815260200160002060009054906101000a900473ffffffffffffffffffffffffffffffffffffffff1673ffffffffffffffffffffffffffffffffffffffff163373ffffffffffffffffffffffffffffffffffffffff16146108d957600080fd5b6000600485815481106108ef576108ee6114d9565b5b9060005260206000209060030201905061090881610cbe565b61091157600080fd5b6002548461091f91906113b3565b9350600060028583600101546109359190611508565b61093f919061153c565b9050604051602001610950906115c4565b6040516020818303038152906040528051906020012084604051602001610977919061160a565b60405160208183030381529060405280519060200120036109b95760636064826109a191906113b3565b826109ac9190611413565b6109b69190611508565b90505b6109f86040518060400160405280600681526020017f4e6f4e616d65000000000000000000000000000000000000000000000000000081525082610a4e565b610a0182610ce5565b505050505050565b60008082604051602001610a1d919061160a565b6040516020818303038152906040528051906020012060001c905060025481610a4691906113b3565b915050919050565b60046040518060c00160405280848152602001838152602001600163ffffffff16815260200160035442610a829190611508565b63ffffffff168152602001600061ffff168152602001600061ffff1681525090806001815401808255809150506001900390600052602060002090600302016000909190919091506000820151816000019081610adf91906117cd565b506020820151816001015560408201518160020160006101000a81548163ffffffff021916908363ffffffff16021790555060608201518160020160046101000a81548163ffffffff021916908363ffffffff16021790555060808201518160020160086101000a81548161ffff021916908361ffff16021790555060a082015181600201600a6101000a81548161ffff021916908361ffff160217905550505060006001600480549050610b949190611413565b9050336005600083815260200190815260200160002060006101000a81548173ffffffffffffffffffffffffffffffffffffffff021916908373ffffffffffffffffffffffffffffffffffffffff160217905550610c3b6001600660003373ffffffffffffffffffffffffffffffffffffffff1673ffffffffffffffffffffffffffffffffffffffff16815260200190815260200160002054610d1890919063ffffffff16565b600660003373ffffffffffffffffffffffffffffffffffffffff1673ffffffffffffffffffffffffffffffffffffffff168152602001908152602001600020819055507f88f026aacbbecc90c18411df4b1185fd8d9be2470f1962f192bf84a27d0704b7818484604051610cb19392919061189f565b60405180910390a1505050565b6000428260020160049054906101000a900463ffffffff1663ffffffff1611159050919050565b60035442610cf39190611508565b8160020160046101000a81548163ffffffff021916908363ffffffff16021790555050565b6000808284610d279190611508565b905083811015610d3a57610d396118dd565b5b8091505092915050565b6000604051905090565b600080fd5b600080fd5b6000819050919050565b610d6b81610d58565b8114610d7657600080fd5b50565b600081359050610d8881610d62565b92915050565b60008060408385031215610da557610da4610d4e565b5b6000610db385828601610d79565b9250506020610dc485828601610d79565b9150509250929050565b600060208284031215610de457610de3610d4e565b5b6000610df284828501610d79565b91505092915050565b600081519050919050565b600082825260208201905092915050565b60005b83811015610e35578082015181840152602081019050610e1a565b60008484015250505050565b6000601f19601f8301169050919050565b6000610e5d82610dfb565b610e678185610e06565b9350610e77818560208601610e17565b610e8081610e41565b840191505092915050565b610e9481610d58565b82525050565b600063ffffffff82169050919050565b610eb381610e9a565b82525050565b600061ffff82169050919050565b610ed081610eb9565b82525050565b600060c0820190508181036000830152610ef08189610e52565b9050610eff6020830188610e8b565b610f0c6040830187610eaa565b610f196060830186610eaa565b610f266080830185610ec7565b610f3360a0830184610ec7565b979650505050505050565b600073ffffffffffffffffffffffffffffffffffffffff82169050919050565b6000610f6982610f3e565b9050919050565b610f7981610f5e565b82525050565b6000602082019050610f946000830184610f70565b92915050565b610fa381610f5e565b8114610fae57600080fd5b50565b600081359050610fc081610f9a565b92915050565b600060208284031215610fdc57610fdb610d4e565b5b6000610fea84828501610fb1565b91505092915050565b600080fd5b600080fd5b7f4e487b7100000000000000000000000000000000000000000000000000000000600052604160045260246000fd5b61103582610e41565b810181811067ffffffffffffffff8211171561105457611053610ffd565b5b80604052505050565b6000611067610d44565b9050611073828261102c565b919050565b600067ffffffffffffffff82111561109357611092610ffd565b5b61109c82610e41565b9050602081019050919050565b82818337600083830152505050565b60006110cb6110c684611078565b61105d565b9050828152602081018484840111156110e7576110e6610ff8565b5b6110f28482856110a9565b509392505050565b600082601f83011261110f5761110e610ff3565b5b813561111f8482602086016110b8565b91505092915050565b60006020828403121561113e5761113d610d4e565b5b600082013567ffffffffffffffff81111561115c5761115b610d53565b5b611168848285016110fa565b91505092915050565b60006020820190506111866000830184610e8b565b92915050565b60008115159050919050565b6111a18161118c565b81146111ac57600080fd5b50565b6000815190506111be81611198565b92915050565b6000815190506111d381610d62565b92915050565b6000806000806000806000806000806101408b8d0312156111fd576111fc610d4e565b5b600061120b8d828e016111af565b9a5050602061121c8d828e016111af565b995050604061122d8d828e016111c4565b985050606061123e8d828e016111c4565b975050608061124f8d828e016111c4565b96505060a06112608d828e016111c4565b95505060c06112718d828e016111c4565b94505060e06112828d828e016111c4565b9350506101006112948d828e016111c4565b9250506101206112a68d828e016111c4565b9150509295989b9194979a5092959850565b7f4e487b7100000000000000000000000000000000000000000000000000000000600052602260045260246000fd5b600060028204905060018216806112ff57607f821691505b602082108103611312576113116112b8565b5b50919050565b7f4f776e61626c653a2063616c6c6572206973206e6f7420746865206f776e6572600082015250565b600061134e602083610e06565b915061135982611318565b602082019050919050565b6000602082019050818103600083015261137d81611341565b9050919050565b7f4e487b7100000000000000000000000000000000000000000000000000000000600052601260045260246000fd5b60006113be82610d58565b91506113c983610d58565b9250826113d9576113d8611384565b5b828206905092915050565b7f4e487b7100000000000000000000000000000000000000000000000000000000600052601160045260246000fd5b600061141e82610d58565b915061142983610d58565b9250828203905081811115611441576114406113e4565b5b92915050565b7f4f776e61626c653a206e6577206f776e657220697320746865207a65726f206160008201527f6464726573730000000000000000000000000000000000000000000000000000602082015250565b60006114a3602683610e06565b91506114ae82611447565b604082019050919050565b600060208201905081810360008301526114d281611496565b9050919050565b7f4e487b7100000000000000000000000000000000000000000000000000000000600052603260045260246000fd5b600061151382610d58565b915061151e83610d58565b9250828201905080821115611536576115356113e4565b5b92915050565b600061154782610d58565b915061155283610d58565b92508261156257611561611384565b5b828204905092915050565b600081905092915050565b7f6b69747479000000000000000000000000000000000000000000000000000000600082015250565b60006115ae60058361156d565b91506115b982611578565b600582019050919050565b60006115cf826115a1565b9150819050919050565b60006115e482610dfb565b6115ee818561156d565b93506115fe818560208601610e17565b80840191505092915050565b600061161682846115d9565b915081905092915050565b60008190508160005260206000209050919050565b60006020601f8301049050919050565b600082821b905092915050565b6000600883026116837fffffffffffffffffffffffffffffffffffffffffffffffffffffffffffffffff82611646565b61168d8683611646565b95508019841693508086168417925050509392505050565b6000819050919050565b60006116ca6116c56116c084610d58565b6116a5565b610d58565b9050919050565b6000819050919050565b6116e4836116af565b6116f86116f0826116d1565b848454611653565b825550505050565b600090565b61170d611700565b6117188184846116db565b505050565b5b8181101561173c57611731600082611705565b60018101905061171e565b5050565b601f8211156117815761175281611621565b61175b84611636565b8101602085101561176a578190505b61177e61177685611636565b83018261171d565b50505b505050565b600082821c905092915050565b60006117a460001984600802611786565b1980831691505092915050565b60006117bd8383611793565b9150826002028217905092915050565b6117d682610dfb565b67ffffffffffffffff8111156117ef576117ee610ffd565b5b6117f982546112e7565b611804828285611740565b600060209050601f8311600181146118375760008415611825578287015190505b61182f85826117b1565b865550611897565b601f19841661184586611621565b60005b8281101561186d57848901518255600182019150602085019450602081019050611848565b8683101561188a5784890151611886601f891682611793565b8355505b6001600288020188555050505b505050505050565b60006060820190506118b46000830186610e8b565b81810360208301526118c68185610e52565b90506118d56040830184610e8b565b949350505050565b7f4e487b7100000000000000000000000000000000000000000000000000000000600052600160045260246000fdfea264697066735822122006674682f5743f9e4ed44c697c9e091b13dcfa842b59044fcd2b142e839d28d464736f6c634300081c0033",
  "linkReferences": {},
  "deployedLinkReferences": {}
}