{
  "_format": "hh-sol-artifact-1",
  "contractName": "ZombieAttack",
  "sourceName": "contracts/ZombieAttack.sol",
  "abi": [
    {
      "anonymous": false,
      "inputs": [
        {
          "indexed": false,
          "internalType": "uint256",
          "name": "zombieId",
          "type": "uint256"
        },
        {
          "indexed": false,
          "internalType": "string",
          "name": "name",
          "type": "string"
        },
        {
          "indexed": false,
          "internalType": "uint256",
          "name": "dna",
          "type": "uint256"
        }
      ],
      "name": "NewZombie",
      "type": "event"
    },
    {
      "anonymous": false,
      "inputs": [
        {
          "indexed": true,
          "internalType": "address",
          "name": "previousOwner",
          "type": "address"
        },
        {
          "indexed": true,
          "internalType": "address",
          "name": "newOwner",
          "type": "address"
        }
      ],
      "name": "OwnershipTransferred",
      "type": "event"
    },
    {
      "inputs": [
        {
          "internalType": "uint256",
          "name": "_zombieId",
          "type": "uint256"
        },
        {
          "internalType": "uint256",
          "name": "_targetId",
          "type": "uint256"
        }
      ],
      "name": "attack",
      "outputs": [],
      "stateMutability": "nonpayable",
      "type": "function"
    },
    {
      "inputs": [
        {
          "internalType": "uint256",
          "name": "_zombieId",
          "type": "uint256"
        },
        {
          "internalType": "uint256",
          "name": "_newDna",
          "type": "uint256"
        }
      ],
      "name": "changeDna",
      "outputs": [],
      "stateMutability": "nonpayable",
      "type": "function"
    },
    {
      "inputs": [
        {
          "internalType": "uint256",
          "name": "_zombieId",
          "type": "uint256"
        },
        {
          "internalType": "string",
          "name": "_newName",
          "type": "string"
        }
      ],
      "name": "changeName",
      "outputs": [],
      "stateMutability": "nonpayable",
      "type": "function"
    },
    {
      "inputs": [
        {
          "internalType": "string",
          "name": "_name",
          "type": "string"
        }
      ],
      "name": "createRandomZombie",
      "outputs": [],
      "stateMutability": "nonpayable",
      "type": "function"
    },
    {
      "inputs": [
        {
          "internalType": "uint256",
          "name": "_zombieId",
          "type": "uint256"
        },
        {
          "internalType": "uint256",
          "name": "_kittyId",
          "type": "uint256"
        }
      ],
      "name": "feedOnKitty",
      "outputs": [],
      "stateMutability": "nonpayable",
      "type": "function"
    },
    {
      "inputs": [
        {
          "internalType": "address",
          "name": "_owner",
          "type": "address"
        }
      ],
      "name": "getZombiesByOwner",
      "outputs": [
        {
          "internalType": "uint256[]",
          "name": "",
          "type": "uint256[]"
        }
      ],
      "stateMutability": "view",
      "type": "function"
    },
    {
      "inputs": [
        {
          "internalType": "uint256",
          "name": "_zombieId",
          "type": "uint256"
        }
      ],
      "name": "levelUp",
      "outputs": [],
      "stateMutability": "payable",
      "type": "function"
    },
    {
      "inputs": [],
      "name": "owner",
      "outputs": [
        {
          "internalType": "address",
          "name": "",
          "type": "address"
        }
      ],
      "stateMutability": "view",
      "type": "function"
    },
    {
      "inputs": [],
      "name": "renounceOwnership",
      "outputs": [],
      "stateMutability": "nonpayable",
      "type": "function"
    },
    {
      "inputs": [
        {
          "internalType": "address",
          "name": "_address",
          "type": "address"
        }
      ],
      "name": "setKittyContractAddress",
      "outputs": [],
      "stateMutability": "nonpayable",
      "type": "function"
    },
    {
      "inputs": [
        {
          "internalType": "uint256",
          "name": "_fee",
          "type": "uint256"
        }
      ],
      "name": "setLevelUpFee",
      "outputs": [],
      "stateMutability": "nonpayable",
      "type": "function"
    },
    {
      "inputs": [
        {
          "internalType": "address",
          "name": "newOwner",
          "type": "address"
        }
      ],
      "name": "transferOwnership",
      "outputs": [],
      "stateMutability": "nonpayable",
      "type": "function"
    },
    {
      "inputs": [],
      "name": "withdraw",
      "outputs": [],
      "stateMutability": "nonpayable",
      "type": "function"
    },
    {
      "inputs": [
        {
          "internalType": "uint256",
          "name": "",
          "type": "uint256"
        }
      ],
      "name": "zombieToOwner",
      "outputs": [
        {
          "internalType": "address",
          "name": "",
          "type": "address"
        }
      ],
      "stateMutability": "view",
      "type": "function"
    },
    {
      "inputs": [
        {
          "internalType": "uint256",
          "name": "",
          "type": "uint256"
        }
      ],
      "name": "zombies",
      "outputs": [
        {
          "internalType": "string",
          "name": "name",
          "type": "string"
        },
        {
          "internalType": "uint256",
          "name": "dna",
          "type": "uint256"
        },
        {
          "internalType": "uint32",
          "name": "level",
          "type": "uint32"
        },
        {
          "internalType": "uint32",
          "name": "readyTime",
          "type": "uint32"
        },
        {
          "internalType": "uint16",
          "name": "winCount",
          "type": "uint16"
        },
        {
          "internalType": "uint16",
          "name": "lossCount",
          "type": "uint16"
        }
      ],
      "stateMutability": "view",
      "type": "function"
    }
  ],
  "bytecode": "0x60806040526010600155600154600a6100189190610256565b6002556201518060035566038d7ea4c6800060085560006009556046600a5534801561004357600080fd5b506000339050806000806101000a81548173ffffffffffffffffffffffffffffffffffffffff021916908373ffffffffffffffffffffffffffffffffffffffff1602179055508073ffffffffffffffffffffffffffffffffffffffff16600073ffffffffffffffffffffffffffffffffffffffff167f8be0079c531659141344cd1fd0a4f28419497f9722a3daafe3b4186f6b6457e060405160405180910390a3506102a1565b7f4e487b7100000000000000000000000000000000000000000000000000000000600052601160045260246000fd5b60008160011c9050919050565b6000808291508390505b60018511156101705780860481111561014c5761014b6100ea565b5b600185161561015b5780820291505b808102905061016985610119565b9450610130565b94509492505050565b6000826101895760019050610245565b816101975760009050610245565b81600181146101ad57600281146101b7576101e6565b6001915050610245565b60ff8411156101c9576101c86100ea565b5b8360020a9150848211156101e0576101df6100ea565b5b50610245565b5060208310610133831016604e8410600b841016171561021b5782820a905083811115610216576102156100ea565b5b610245565b6102288484846001610126565b9250905081840481111561023f5761023e6100ea565b5b81810290505b9392505050565b6000819050919050565b60006102618261024c565b915061026c8361024c565b92506102997fffffffffffffffffffffffffffffffffffffffffffffffffffffffffffffffff8484610179565b905092915050565b6127a2806102b06000396000f3fe6080604052600436106100e85760003560e01c80635faf28801161008a578063c39cbef111610059578063c39cbef1146102c2578063ccf670f8146102eb578063e1fa763814610314578063f2fde38b1461033d576100e8565b80635faf28801461022e578063715018a6146102575780637bff0a011461026e5780638da5cb5b14610297576100e8565b80633ccfd60b116100c65780633ccfd60b146101745780634412e1041461018b578063528b7b8f146101c85780635f4623f114610205576100e8565b80630ce90ec2146100ed57806317a7f4cc146101095780632052465e14610132575b600080fd5b61010760048036038101906101029190611817565b610366565b005b34801561011557600080fd5b50610130600480360381019061012b9190611844565b610409565b005b34801561013e57600080fd5b5061015960048036038101906101549190611817565b610527565b60405161016b9695949392919061195f565b60405180910390f35b34801561018057600080fd5b50610189610637565b005b34801561019757600080fd5b506101b260048036038101906101ad9190611a25565b61071b565b6040516101bf9190611b10565b60405180910390f35b3480156101d457600080fd5b506101ef60048036038101906101ea9190611817565b610867565b6040516101fc9190611b41565b60405180910390f35b34801561021157600080fd5b5061022c60048036038101906102279190611a25565b61089a565b005b34801561023a57600080fd5b5061025560048036038101906102509190611844565b61096c565b005b34801561026357600080fd5b5061026c610a54565b005b34801561027a57600080fd5b5061029560048036038101906102909190611c91565b610ba0565b005b3480156102a357600080fd5b506102ac610c21565b6040516102b99190611b41565b60405180910390f35b3480156102ce57600080fd5b506102e960048036038101906102e49190611d3a565b610c4a565b005b3480156102f757600080fd5b50610312600480360381019061030d9190611817565b610d3e565b005b34801561032057600080fd5b5061033b60048036038101906103369190611844565b610dd6565b005b34801561034957600080fd5b50610364600480360381019061035f9190611a25565b611070565b005b600854341461037457600080fd5b6103c360016004838154811061038d5761038c611d9a565b5b906000526020600020906003020160020160009054906101000a900463ffffffff1663ffffffff1661122a90919063ffffffff16565b600482815481106103d7576103d6611d9a565b5b906000526020600020906003020160020160006101000a81548163ffffffff021916908363ffffffff16021790555050565b6000600760009054906101000a900473ffffffffffffffffffffffffffffffffffffffff1673ffffffffffffffffffffffffffffffffffffffff1663e98b7f4d836040518263ffffffff1660e01b81526004016104669190611dc9565b61014060405180830381865afa158015610484573d6000803e3d6000fd5b505050506040513d601f19601f820116820180604052508101906104a89190611e31565b9091929394959697985090919293949596975090919293949596509091929394955090919293945090919293509091925090915090508091505061052283826040518060400160405280600581526020017f6b69747479000000000000000000000000000000000000000000000000000000815250611262565b505050565b6004818154811061053757600080fd5b906000526020600020906003020160009150905080600001805461055a90611f3f565b80601f016020809104026020016040519081016040528092919081815260200182805461058690611f3f565b80156105d35780601f106105a8576101008083540402835291602001916105d3565b820191906000526020600020905b8154815290600101906020018083116105b657829003601f168201915b5050505050908060010154908060020160009054906101000a900463ffffffff16908060020160049054906101000a900463ffffffff16908060020160089054906101000a900461ffff169080600201600a9054906101000a900461ffff16905086565b3373ffffffffffffffffffffffffffffffffffffffff1660008054906101000a900473ffffffffffffffffffffffffffffffffffffffff1673ffffffffffffffffffffffffffffffffffffffff16146106c5576040517f08c379a00000000000000000000000000000000000000000000000000000000081526004016106bc90611fbc565b60405180910390fd5b60006106cf610c21565b90508073ffffffffffffffffffffffffffffffffffffffff166108fc479081150290604051600060405180830381858888f19350505050158015610717573d6000803e3d6000fd5b5050565b60606000600660008473ffffffffffffffffffffffffffffffffffffffff1673ffffffffffffffffffffffffffffffffffffffff1681526020019081526020016000205467ffffffffffffffff81111561077857610777611b66565b5b6040519080825280602002602001820160405280156107a65781602001602082028036833780820191505090505b5090506000805b60048054905081101561085c578473ffffffffffffffffffffffffffffffffffffffff166005600083815260200190815260200160002060009054906101000a900473ffffffffffffffffffffffffffffffffffffffff1673ffffffffffffffffffffffffffffffffffffffff160361084f578083838151811061083457610833611d9a565b5b602002602001018181525050818061084b9061200b565b9250505b80806001019150506107ad565b508192505050919050565b60056020528060005260406000206000915054906101000a900473ffffffffffffffffffffffffffffffffffffffff1681565b3373ffffffffffffffffffffffffffffffffffffffff1660008054906101000a900473ffffffffffffffffffffffffffffffffffffffff1673ffffffffffffffffffffffffffffffffffffffff1614610928576040517f08c379a000000000000000000000000000000000000000000000000000000000815260040161091f90611fbc565b60405180910390fd5b80600760006101000a81548173ffffffffffffffffffffffffffffffffffffffff021916908373ffffffffffffffffffffffffffffffffffffffff16021790555050565b601482816004828154811061098457610983611d9a565b5b906000526020600020906003020160020160009054906101000a900463ffffffff1663ffffffff1610156109b757600080fd5b836005600082815260200190815260200160002060009054906101000a900473ffffffffffffffffffffffffffffffffffffffff1673ffffffffffffffffffffffffffffffffffffffff163373ffffffffffffffffffffffffffffffffffffffff1614610a2357600080fd5b8360048681548110610a3857610a37611d9a565b5b9060005260206000209060030201600101819055505050505050565b3373ffffffffffffffffffffffffffffffffffffffff1660008054906101000a900473ffffffffffffffffffffffffffffffffffffffff1673ffffffffffffffffffffffffffffffffffffffff1614610ae2576040517f08c379a0000000000000000000000000000000000000000000000000000000008152600401610ad990611fbc565b60405180910390fd5b600073ffffffffffffffffffffffffffffffffffffffff1660008054906101000a900473ffffffffffffffffffffffffffffffffffffffff1673ffffffffffffffffffffffffffffffffffffffff167f8be0079c531659141344cd1fd0a4f28419497f9722a3daafe3b4186f6b6457e060405160405180910390a360008060006101000a81548173ffffffffffffffffffffffffffffffffffffffff021916908373ffffffffffffffffffffffffffffffffffffffff160217905550565b6000600660003373ffffffffffffffffffffffffffffffffffffffff1673ffffffffffffffffffffffffffffffffffffffff1681526020019081526020016000205414610bec57600080fd5b6000610bf7826113fe565b9050606481610c069190612082565b81610c1191906120b3565b9050610c1d8282611443565b5050565b60008060009054906101000a900473ffffffffffffffffffffffffffffffffffffffff16905090565b6002838160048281548110610c6257610c61611d9a565b5b906000526020600020906003020160020160009054906101000a900463ffffffff1663ffffffff161015610c9557600080fd5b846005600082815260200190815260200160002060009054906101000a900473ffffffffffffffffffffffffffffffffffffffff1673ffffffffffffffffffffffffffffffffffffffff163373ffffffffffffffffffffffffffffffffffffffff1614610d0157600080fd5b848460048881548110610d1757610d16611d9a565b5b90600052602060002090600302016000019182610d3592919061229e565b50505050505050565b3373ffffffffffffffffffffffffffffffffffffffff1660008054906101000a900473ffffffffffffffffffffffffffffffffffffffff1673ffffffffffffffffffffffffffffffffffffffff1614610dcc576040517f08c379a0000000000000000000000000000000000000000000000000000000008152600401610dc390611fbc565b60405180910390fd5b8060088190555050565b816005600082815260200190815260200160002060009054906101000a900473ffffffffffffffffffffffffffffffffffffffff1673ffffffffffffffffffffffffffffffffffffffff163373ffffffffffffffffffffffffffffffffffffffff1614610e4257600080fd5b600060048481548110610e5857610e57611d9a565b5b90600052602060002090600302019050600060048481548110610e7e57610e7d611d9a565b5b906000526020600020906003020190506000610e9a60646116b3565b9050600a548111610fce57610ecf60018460020160089054906101000a900461ffff1661ffff1661171390919063ffffffff16565b8360020160086101000a81548161ffff021916908361ffff160217905550610f1b60018460020160009054906101000a900463ffffffff1663ffffffff1661122a90919063ffffffff16565b8360020160006101000a81548163ffffffff021916908363ffffffff160217905550610f67600183600201600a9054906101000a900461ffff1661ffff1661171390919063ffffffff16565b82600201600a6101000a81548161ffff021916908361ffff160217905550610fc98683600101546040518060400160405280600681526020017f7a6f6d6269650000000000000000000000000000000000000000000000000000815250611262565b611068565b610ff8600184600201600a9054906101000a900461ffff1661ffff1661171390919063ffffffff16565b83600201600a6101000a81548161ffff021916908361ffff16021790555061104060018360020160089054906101000a900461ffff1661ffff1661171390919063ffffffff16565b8260020160086101000a81548161ffff021916908361ffff16021790555061106783611747565b5b505050505050565b3373ffffffffffffffffffffffffffffffffffffffff1660008054906101000a900473ffffffffffffffffffffffffffffffffffffffff1673ffffffffffffffffffffffffffffffffffffffff16146110fe576040517f08c379a00000000000000000000000000000000000000000000000000000000081526004016110f590611fbc565b60405180910390fd5b600073ffffffffffffffffffffffffffffffffffffffff168173ffffffffffffffffffffffffffffffffffffffff160361116d576040517f08c379a0000000000000000000000000000000000000000000000000000000008152600401611164906123e0565b60405180910390fd5b8073ffffffffffffffffffffffffffffffffffffffff1660008054906101000a900473ffffffffffffffffffffffffffffffffffffffff1673ffffffffffffffffffffffffffffffffffffffff167f8be0079c531659141344cd1fd0a4f28419497f9722a3daafe3b4186f6b6457e060405160405180910390a3806000806101000a81548173ffffffffffffffffffffffffffffffffffffffff021916908373ffffffffffffffffffffffffffffffffffffffff16021790555050565b60008082846112399190612400565b90508363ffffffff168163ffffffff16101561125857611257612438565b5b8091505092915050565b826005600082815260200190815260200160002060009054906101000a900473ffffffffffffffffffffffffffffffffffffffff1673ffffffffffffffffffffffffffffffffffffffff163373ffffffffffffffffffffffffffffffffffffffff16146112ce57600080fd5b6000600485815481106112e4576112e3611d9a565b5b906000526020600020906003020190506112fd8161177a565b61130657600080fd5b600254846113149190612082565b93506000600285836001015461132a9190612467565b611334919061249b565b905060405160200161134590612523565b604051602081830303815290604052805190602001208460405160200161136c9190612569565b60405160208183030381529060405280519060200120036113ae5760636064826113969190612082565b826113a191906120b3565b6113ab9190612467565b90505b6113ed6040518060400160405280600681526020017f4e6f4e616d65000000000000000000000000000000000000000000000000000081525082611443565b6113f682611747565b505050505050565b600080826040516020016114129190612569565b6040516020818303038152906040528051906020012060001c90506002548161143b9190612082565b915050919050565b60046040518060c00160405280848152602001838152602001600163ffffffff168152602001600354426114779190612467565b63ffffffff168152602001600061ffff168152602001600061ffff16815250908060018154018082558091505060019003906000526020600020906003020160009091909190915060008201518160000190816114d49190612580565b506020820151816001015560408201518160020160006101000a81548163ffffffff021916908363ffffffff16021790555060608201518160020160046101000a81548163ffffffff021916908363ffffffff16021790555060808201518160020160086101000a81548161ffff021916908361ffff16021790555060a082015181600201600a6101000a81548161ffff021916908361ffff16021790555050506000600160048054905061158991906120b3565b9050336005600083815260200190815260200160002060006101000a81548173ffffffffffffffffffffffffffffffffffffffff021916908373ffffffffffffffffffffffffffffffffffffffff1602179055506116306001600660003373ffffffffffffffffffffffffffffffffffffffff1673ffffffffffffffffffffffffffffffffffffffff168152602001908152602001600020546117a190919063ffffffff16565b600660003373ffffffffffffffffffffffffffffffffffffffff1673ffffffffffffffffffffffffffffffffffffffff168152602001908152602001600020819055507f88f026aacbbecc90c18411df4b1185fd8d9be2470f1962f192bf84a27d0704b78184846040516116a693929190612652565b60405180910390a1505050565b60006116cb60016009546117a190919063ffffffff16565b6009819055508142336009546040516020016116e9939291906126f9565b6040516020818303038152906040528051906020012060001c61170c9190612082565b9050919050565b60008082846117229190612736565b90508361ffff168161ffff16101561173d5761173c612438565b5b8091505092915050565b600354426117559190612467565b8160020160046101000a81548163ffffffff021916908363ffffffff16021790555050565b6000428260020160049054906101000a900463ffffffff1663ffffffff1611159050919050565b60008082846117b09190612467565b9050838110156117c3576117c2612438565b5b8091505092915050565b6000604051905090565b600080fd5b600080fd5b6000819050919050565b6117f4816117e1565b81146117ff57600080fd5b50565b600081359050611811816117eb565b92915050565b60006020828403121561182d5761182c6117d7565b5b600061183b84828501611802565b91505092915050565b6000806040838503121561185b5761185a6117d7565b5b600061186985828601611802565b925050602061187a85828601611802565b9150509250929050565b600081519050919050565b600082825260208201905092915050565b60005b838110156118be5780820151818401526020810190506118a3565b60008484015250505050565b6000601f19601f8301169050919050565b60006118e682611884565b6118f0818561188f565b93506119008185602086016118a0565b611909816118ca565b840191505092915050565b61191d816117e1565b82525050565b600063ffffffff82169050919050565b61193c81611923565b82525050565b600061ffff82169050919050565b61195981611942565b82525050565b600060c082019050818103600083015261197981896118db565b90506119886020830188611914565b6119956040830187611933565b6119a26060830186611933565b6119af6080830185611950565b6119bc60a0830184611950565b979650505050505050565b600073ffffffffffffffffffffffffffffffffffffffff82169050919050565b60006119f2826119c7565b9050919050565b611a02816119e7565b8114611a0d57600080fd5b50565b600081359050611a1f816119f9565b92915050565b600060208284031215611a3b57611a3a6117d7565b5b6000611a4984828501611a10565b91505092915050565b600081519050919050565b600082825260208201905092915050565b6000819050602082019050919050565b611a87816117e1565b82525050565b6000611a998383611a7e565b60208301905092915050565b6000602082019050919050565b6000611abd82611a52565b611ac78185611a5d565b9350611ad283611a6e565b8060005b83811015611b03578151611aea8882611a8d565b9750611af583611aa5565b925050600181019050611ad6565b5085935050505092915050565b60006020820190508181036000830152611b2a8184611ab2565b905092915050565b611b3b816119e7565b82525050565b6000602082019050611b566000830184611b32565b92915050565b600080fd5b600080fd5b7f4e487b7100000000000000000000000000000000000000000000000000000000600052604160045260246000fd5b611b9e826118ca565b810181811067ffffffffffffffff82111715611bbd57611bbc611b66565b5b80604052505050565b6000611bd06117cd565b9050611bdc8282611b95565b919050565b600067ffffffffffffffff821115611bfc57611bfb611b66565b5b611c05826118ca565b9050602081019050919050565b82818337600083830152505050565b6000611c34611c2f84611be1565b611bc6565b905082815260208101848484011115611c5057611c4f611b61565b5b611c5b848285611c12565b509392505050565b600082601f830112611c7857611c77611b5c565b5b8135611c88848260208601611c21565b91505092915050565b600060208284031215611ca757611ca66117d7565b5b600082013567ffffffffffffffff811115611cc557611cc46117dc565b5b611cd184828501611c63565b91505092915050565b600080fd5b600080fd5b60008083601f840112611cfa57611cf9611b5c565b5b8235905067ffffffffffffffff811115611d1757611d16611cda565b5b602083019150836001820283011115611d3357611d32611cdf565b5b9250929050565b600080600060408486031215611d5357611d526117d7565b5b6000611d6186828701611802565b935050602084013567ffffffffffffffff811115611d8257611d816117dc565b5b611d8e86828701611ce4565b92509250509250925092565b7f4e487b7100000000000000000000000000000000000000000000000000000000600052603260045260246000fd5b6000602082019050611dde6000830184611914565b92915050565b60008115159050919050565b611df981611de4565b8114611e0457600080fd5b50565b600081519050611e1681611df0565b92915050565b600081519050611e2b816117eb565b92915050565b6000806000806000806000806000806101408b8d031215611e5557611e546117d7565b5b6000611e638d828e01611e07565b9a50506020611e748d828e01611e07565b9950506040611e858d828e01611e1c565b9850506060611e968d828e01611e1c565b9750506080611ea78d828e01611e1c565b96505060a0611eb88d828e01611e1c565b95505060c0611ec98d828e01611e1c565b94505060e0611eda8d828e01611e1c565b935050610100611eec8d828e01611e1c565b925050610120611efe8d828e01611e1c565b9150509295989b9194979a5092959850565b7f4e487b7100000000000000000000000000000000000000000000000000000000600052602260045260246000fd5b60006002820490506001821680611f5757607f821691505b602082108103611f6a57611f69611f10565b5b50919050565b7f4f776e61626c653a2063616c6c6572206973206e6f7420746865206f776e6572600082015250565b6000611fa660208361188f565b9150611fb182611f70565b602082019050919050565b60006020820190508181036000830152611fd581611f99565b9050919050565b7f4e487b7100000000000000000000000000000000000000000000000000000000600052601160045260246000fd5b6000612016826117e1565b91507fffffffffffffffffffffffffffffffffffffffffffffffffffffffffffffffff820361204857612047611fdc565b5b600182019050919050565b7f4e487b7100000000000000000000000000000000000000000000000000000000600052601260045260246000fd5b600061208d826117e1565b9150612098836117e1565b9250826120a8576120a7612053565b5b828206905092915050565b60006120be826117e1565b91506120c9836117e1565b92508282039050818111156120e1576120e0611fdc565b5b92915050565b600082905092915050565b60008190508160005260206000209050919050565b60006020601f8301049050919050565b600082821b905092915050565b6000600883026121547fffffffffffffffffffffffffffffffffffffffffffffffffffffffffffffffff82612117565b61215e8683612117565b95508019841693508086168417925050509392505050565b6000819050919050565b600061219b612196612191846117e1565b612176565b6117e1565b9050919050565b6000819050919050565b6121b583612180565b6121c96121c1826121a2565b848454612124565b825550505050565b600090565b6121de6121d1565b6121e98184846121ac565b505050565b5b8181101561220d576122026000826121d6565b6001810190506121ef565b5050565b601f82111561225257612223816120f2565b61222c84612107565b8101602085101561223b578190505b61224f61224785612107565b8301826121ee565b50505b505050565b600082821c905092915050565b600061227560001984600802612257565b1980831691505092915050565b600061228e8383612264565b9150826002028217905092915050565b6122a883836120e7565b67ffffffffffffffff8111156122c1576122c0611b66565b5b6122cb8254611f3f565b6122d6828285612211565b6000601f83116001811461230557600084156122f3578287013590505b6122fd8582612282565b865550612365565b601f198416612313866120f2565b60005b8281101561233b57848901358255600182019150602085019450602081019050612316565b868310156123585784890135612354601f891682612264565b8355505b6001600288020188555050505b50505050505050565b7f4f776e61626c653a206e6577206f776e657220697320746865207a65726f206160008201527f6464726573730000000000000000000000000000000000000000000000000000602082015250565b60006123ca60268361188f565b91506123d58261236e565b604082019050919050565b600060208201905081810360008301526123f9816123bd565b9050919050565b600061240b82611923565b915061241683611923565b9250828201905063ffffffff81111561243257612431611fdc565b5b92915050565b7f4e487b7100000000000000000000000000000000000000000000000000000000600052600160045260246000fd5b6000612472826117e1565b915061247d836117e1565b925082820190508082111561249557612494611fdc565b5b92915050565b60006124a6826117e1565b91506124b1836117e1565b9250826124c1576124c0612053565b5b828204905092915050565b600081905092915050565b7f6b69747479000000000000000000000000000000000000000000000000000000600082015250565b600061250d6005836124cc565b9150612518826124d7565b600582019050919050565b600061252e82612500565b9150819050919050565b600061254382611884565b61254d81856124cc565b935061255d8185602086016118a0565b80840191505092915050565b60006125758284612538565b915081905092915050565b61258982611884565b67ffffffffffffffff8111156125a2576125a1611b66565b5b6125ac8254611f3f565b6125b7828285612211565b600060209050601f8311600181146125ea57600084156125d8578287015190505b6125e28582612282565b86555061264a565b601f1984166125f8866120f2565b60005b82811015612620578489015182556001820191506020850194506020810190506125fb565b8683101561263d5784890151612639601f891682612264565b8355505b6001600288020188555050505b505050505050565b60006060820190506126676000830186611914565b818103602083015261267981856118db565b90506126886040830184611914565b949350505050565b6000819050919050565b6126ab6126a6826117e1565b612690565b82525050565b60008160601b9050919050565b60006126c9826126b1565b9050919050565b60006126db826126be565b9050919050565b6126f36126ee826119e7565b6126d0565b82525050565b6000612705828661269a565b60208201915061271582856126e2565b601482019150612725828461269a565b602082019150819050949350505050565b600061274182611942565b915061274c83611942565b9250828201905061ffff81111561276657612765611fdc565b5b9291505056fea2646970667358221220fd87b03b7928c0b4c789a48432b1b6a3859a1ac52eaea670dbfa6b051ef99bdf64736f6c634300081c0033",
  "linkReferences": {},
  "deployedLinkReferences": {}
}